:1000000009C1000036C1000034C1000032C1000047
:1000100030C100002EC100002CC100002AC1000028
:1000200028C1000026C1000024C1000022C1000038
:1000300020C100001EC100001CC100001AC1000048
:1000400018C1000055C6000014C1000012C1000014
:1000500010C100000EC100000CC100005CC4000013
:1000600008C10000C1C20000F5C2000002C10000CA
:1000700000C10000FEC00000FCC00000FAC000008B
:1000800064C60000F6C00000F4C00000F2C000002A
:10009000F0C00000EEC00000ECC00000EAC00000AC
:1000A000E8C00000E6C000007DC60000E2C000001D
:1000B000E0C00000DEC00000DCC00000A0C6000000
:1000C000D8C00000D6C00000D4C00000D2C00000DC
:1000D000D0C00000CEC00000CCC00000CAC00000EC
:1000E000C8C0000012081508040808080E084C08CB
:1000F00019081D08230827082B0831083508390876
:100100004C083F084308470800000A0B02090C0D81
:100110000E080703040100000000000000000000BA
:1001200000000000000000000000000000000000CF
:10013000000000001211100000000000000000008C
:1001400000000000000000000000000000000102AC
:1001500010202008081020401020408002010201D9
:100160000804020101020408102040808040201091
:1001700008040201800402018040201008040201EA
:100180000804020101020408102040800102040852
:10019000102040800505050507050808080802022B
:1001A00002020A0A08080404040401010101010111
:1001B00001010303030303030303040707070C0CF4
:1001C0000C0C0C0C0C0C02020202060606060606BB
:1001D00006060B0B0B0B0B0B0B0B00002200250074
:1001E00028002B002E003100340002010000050120
:1001F00008010B0100002100240027002A002D0027
:100200003000330001010000040107010A015B0115
:100210005C03690111241FBECFEFD1E2DEBFCDBF69
:1002200000E00CBF12E0A0E0B2E0EEE3F6E100E097
:100230000BBF02C007900D92A233B107D9F723E09C
:10024000A2E3B2E001C01D92AC38B207E1F712E0C0
:10025000C2E1D2E000E005C022970109FE010BBF18
:10026000BED7CE30D10780E00807B1F74AD30C944F
:100270000E0BC6CE26E040E855E260E070E08DE46B
:1002800092E052D160E870E087E492E0AEC260E0B4
:1002900070E082E392E069D460EA76E881E090E081
:1002A000A7D361E070E082E392E05FD460EA76E891
:1002B00081E090E09DC36BE072E087E492E0CED2F3
:1002C00020E030E049E050E068E070E082E392E056
:1002D00017C487E492E05BC2CF93DF93D1E08DE453
:1002E00092E014D0892B79F08DE492E028D0C82FC9
:1002F000682F87E492E0F1D2CA3011F0CD3579F75A
:10030000D0934602ECCFDF91CF910895FC01818D0F
:10031000228D90E0805C9F4F821B91098F739927FB
:100320000895FC01918D828D981731F0828DE80F30
:10033000F11D858D90E008958FEF9FEF0895FC01EA
:10034000918D828D981761F0828DDF01A80FB11D0C
:100350005D968C91928D9F5F9F73928F90E0089530
:100360008FEF9FEF089583E593E0892B39F08CE6BA
:1003700091E0892B19F097D1811125C080E090E0A0
:10038000892B41F080E090E0892B21F00E94000051
:1003900081111BC080E090E0892B41F080E090E06B
:1003A000892B21F00E940000811112C080E090E0B2
:1003B000892B99F080E090E0892B79F00E94000071
:1003C000811109C0089588DFD9CF0E940000E2CFD3
:1003D0000E940000EBCF0C9400000895FC01848D76
:1003E000DF01A80FB11DA35ABF4F2C91848D90E05F
:1003F00001968F739927848FA689B7892C93A0893A
:10040000B1898C9180648C93938D848D981306C0F0
:100410000288F389E02D80818F7D80830895CF93BA
:10042000DF93EC01888D8823C1F0EA89FB89808104
:1004300085FD05C0A889B9898C9186FD0EC00FB6CF
:1004400007FCF5CF808185FFF2CFA889B9898C910F
:1004500085FFEDCFCE01C2DFE8CFDF91CF910895C8
:10046000CF92DF92FF920F931F93CF93DF931F9250
:10047000CDB7DEB76C01DC015B969C915B975C9617
:100480008C915C97981307C05096ED91FC91519711
:10049000808185FD31C0F601038D10E00F5F1F4F95
:1004A0000F731127F02EF601848DF81210C00FB6CD
:1004B00007FCF9CFD6015096ED91FC9151978081C0
:1004C00085FFF1CFC601698389DF6981ECCF838D18
:1004D000E80FF11DE35AFF4F6083D6015B960C9342
:1004E0005B975296ED91FC91539780818062808357
:1004F00081E058968C930DC0D6015696ED91FC91F3
:10050000579760835096ED91FC915197808180645C
:10051000808381E090E00F90DF91CF911F910F9148
:10052000FF90DF90CF900895BF92CF92DF92EF922D
:10053000FF92CF93DF93EC016A017B01B22EE88931
:10054000F98982E08083411581EE580761057105C4
:1005500099F060E079E08DE390E0A701960117D66D
:1005600021503109410951095695479537952795ED
:10057000211580E1380790F0E889F989108260E858
:1005800074E88EE190E0A701960101D6215031096F
:10059000410951095695479537952795EC85FD8575
:1005A0003083EE85FF852083188EEC89FD89B0822B
:1005B000EA89FB89808180618083EA89FB89808167
:1005C00088608083EA89FB89808180688083EA89EA
:1005D000FB8980818F7D8083DF91CF91FF90EF90A9
:1005E000DF90CF90BF9008951F920F920FB60F9299
:1005F00011240BB60F922F938F939F93EF93FF933A
:10060000E0915D02F0915E028081E0916302F091E1
:10061000640282FD12C09081809166028F5F8F73A9
:1006200020916702821751F0E0916602F0E0E35BEF
:10063000FD4F958F8093660201C08081FF91EF91FD
:100640009F918F912F910F900BBE0F900FBE0F9027
:100650001F9018951F920F920FB60F9211240BB690
:100660000F922F933F934F935F936F937F938F934B
:100670009F93AF93BF93EF93FF938DE492E0AEDE31
:10068000FF91EF91BF91AF919F918F917F916F916A
:100690005F914F913F912F910F900BBE0F900FBE26
:1006A0000F901F9018958DE492E030DE21E0892BA9
:1006B00009F420E0822F08951092500210924F0208
:1006C00088EE93E0A0E0B0E0809351029093520254
:1006D000A0935302B093540286E292E090934E02AC
:1006E00080934D0285EC90E090935A0280935902DA
:1006F00084EC90E090935C0280935B0280EC90E04D
:1007000090935E0280935D0281EC90E09093600292
:1007100080935F0282EC90E090936202809361028A
:1007200086EC90E0909364028093630210926602DC
:100730001092670210926802109269020895CF9297
:10074000DF92EF92FF920F931F93CF93DF936C0191
:100750007A01EB01E60EF71E00E010E0CE15DF0592
:1007600061F06991D601ED91FC910190F081E02D4D
:10077000C6011995080F191FF1CFC801DF91CF915C
:100780001F910F91FF90EF90DF90CF900895FC01A3
:1007900080819181C0C5CF93DF93EC0188819981DD
:1007A000009709F0B8D5198218821D821C821B821D
:1007B0001A82DF91CF9108950F931F93CF93DF9308
:1007C000EC018B016F5F7F4F8881998133D6009751
:1007D00031F0998388831B830A8381E001C080E024
:1007E000DF91CF911F910F910895CF93DF93EC018B
:1007F00088819981892B29F08A819B8186179707A7
:1008000058F4CE01D9DF882341F08C819D81892B5A
:1008100019F4E881F981108281E0DF91CF91089588
:10082000EF92FF920F931F93CF93DF93EC017B0125
:100830008A01BA01DADF811103C0CE01ACDF06C044
:100840001D830C83B70188819981E1D6CE01DF91A8
:10085000CF911F910F91FF90EF900895FC011182AD
:10086000108213821282158214826115710551F073
:10087000FB0101900020E9F7AF0141505109461BEF
:10088000570BCECF0895EF92FF920F931F93CF9304
:10089000DF93EC017B010C811D816115710511F461
:1008A00080E014C04115510581F0040F151FB801F7
:1008B0009CDF8823A9F3288139818C819D81B70130
:1008C000820F931FA4D61D830C8381E0DF91CF910B
:1008D0001F910F91FF90EF900895CF93DF931F9298
:1008E0001F92CDB7DEB769831A8241E050E0BE01A6
:1008F0006F5F7F4FC8DF0F900F90DF91CF9108950A
:1009000008959BD0FDDFB6DCC3EBD1E0C0DC2097BF
:10091000E9F329DDFBCF1F920F920FB60F9211243E
:100920002F933F938F939F93AF93BF938091EB024D
:100930009091EC02A091ED02B091EE023091EA02AA
:1009400023E0230F2D3720F40196A11DB11D05C012
:1009500026E8230F0296A11DB11D2093EA02809381
:10096000EB029093EC02A093ED02B093EE02809123
:10097000EF029091F002A091F102B091F202019683
:10098000A11DB11D8093EF029093F002A093F1029C
:10099000B093F202BF91AF919F918F913F912F91B0
:1009A0000F900FBE0F901F9018953FB7F89480914D
:1009B000EF029091F002A091F102B091F20226B5FF
:1009C000A89B05C02F3F19F00196A11DB11D3FBF87
:1009D0006627782F892F9A2F620F711D811D911D17
:1009E00042E0660F771F881F991F4A95D1F7089537
:1009F000CF92DF92EF92FF92CF93DF936B017C0156
:100A0000D4DFEB01C114D104E104F10479F077D013
:100A1000CCDF6C1B7D0B683E7340A0F381E0C81AED
:100A2000D108E108F108C851DC4FECCFDF91CF913C
:100A3000FF90EF90DF90CF900895789484B5826016
:100A400084BD84B5816084BD85B5826085BD85B572
:100A5000816085BDEEE6F0E0808181608083E1E821
:100A6000F0E0108280818260808380818160808359
:100A7000E0E8F0E0808181608083E1EBF0E080815C
:100A800084608083E0EBF0E0808181608083E1E935
:100A9000F0E0808182608083808181608083E0E9F2
:100AA000F0E0808181608083E1EAF0E08081826013
:100AB0008083808181608083E0EAF0E080818160D2
:100AC0008083E1E2F1E080818260808380818160C7
:100AD0008083E0E2F1E0808181608083EAE7F0E0FA
:100AE0008081846080838081826080838081816056
:100AF00080838081806880831092C100089508956A
:100B0000AF92BF92CF92DF92EF92FF920F931F931B
:100B1000CF93DF93EC017B015A0169018C01025FE5
:100B20001F4FC80199D1CE01419696D168E070E07F
:100B3000C8015BD2F982E882BB82AA82DD86CC86BC
:100B40008AE590E09D838C839F838E839987888735
:100B50009B878A87DF91CF911F910F91FF90EF9034
:100B6000DF90CF90BF90AF900895FC0175876487A8
:100B70000895CF92DF92EF92FF920F931F93CF933E
:100B8000DF936C018B017A01EC01CC50DD4F888141
:100B900087FF04C0FB011182108223C02CE02C9D32
:100BA000C0012D9D900D11242881AC01420F511DD3
:100BB00027FD5A952091F30230E0421753078CF439
:100BC0002881AC01420F511D27FD5A959A01FA0167
:100BD000EE0FFF1FE20FF31FE850FD4F208126FDAF
:100BE00019C088818F5F88838CE08C9D90018D9DDA
:100BF000300D11248881A901480F511D87FD5A9598
:100C00008091F30290E048175907ACF488818C304A
:100C100034F111C02881820F911D27FD9A95FC01A6
:100C2000EE0FFF1FE80FF91FE850FD4F808160E0D5
:100C30008F736CD2D6CFF801808191810496803475
:100C40009C4918F480E49CE904C0F80180819181FA
:100C50000496F701918380838FEF888340C0F80169
:100C6000808191814881B901640F711D47FD7A959A
:100C7000AB01FB01EE0FFF1FE40FF51FE850FD4F26
:100C800041815281840F951FF70191838083888170
:100C9000A901480F511D87FD5A95FA01EE0FFF1F5C
:100CA000E40FF51FE850FD4F808186FF18C0888152
:100CB000280F311D87FD3A95F901EE0FFF1FE20F56
:100CC000F31FE850FD4F808161E08F73DF91CF917A
:100CD0001F910F91FF90EF90DF90CF9017C2DF919F
:100CE000CF911F910F91FF90EF90DF90CF900895DB
:100CF0001F920F920FB60F9211240BB60F922F93E3
:100D00003F934F935F936F937F938F939F93AF9393
:100D1000BF93EF93FF9348E850E064E870E081E010
:100D200090E027DFFF91EF91BF91AF919F918F915D
:100D30007F916F915F914F913F912F910F900BBEDB
:100D40000F900FBE0F901F9018951F920F920FB625
:100D50000F9211240BB60F922F933F934F935F93F3
:100D60006F937F938F939F93AF93BF93EF93FF9373
:100D700048E950E064E970E082E090E0FADEFF913B
:100D8000EF91BF91AF919F918F917F916F915F9103
:100D90004F913F912F910F900BBE0F900FBE0F9070
:100DA0001F9018951F920F920FB60F9211240BB639
:100DB0000F922F933F934F935F936F937F938F93F4
:100DC0009F93AF93BF93EF93FF9348EA50E064EA99
:100DD00070E083E090E0CDDEFF91EF91BF91AF91A5
:100DE0009F918F917F916F915F914F913F912F9143
:100DF0000F900BBE0F900FBE0F901F9018951F9273
:100E00000F920FB60F9211240BB60F922F933F93B0
:100E10004F935F936F937F938F939F93AF93BF9302
:100E2000EF93FF9348E251E064E271E080E090E0EC
:100E3000A0DEFF91EF91BF91AF919F918F917F9134
:100E40006F915F914F913F912F910F900BBE0F903B
:100E50000FBE0F901F9018952091F3022033A0F43D
:100E600031E0320F3093F302FC012083822F90E0B7
:100E7000FC01EE0FFF1FE80FF91FE850FD4F88EB54
:100E80009BE09283818308952FEFFC0120830895D6
:100E9000DF92EF92FF920F931F93CF93DF93EC01BA
:100EA000D62E7A0189018881803308F066C061E01E
:100EB0008D2DF3D08881A82FB0E0FD01EE0FFF1F2C
:100EC000EA0FFB1FE850FD4F2D2D2F739081907C72
:100ED000922B908360E272E06E197F0977FF02C067
:100EE0006D5F7F4F7595679575956795698340E64A
:100EF00059E0401B510B57FF02C04D5F5F4F5595A6
:100F00004795559547954A836CE035D19CE0899F7C
:100F1000B001112420E030E0A901460F571FFA016B
:100F2000EE0FFF1FE40FF51FE850FD4F908196FD77
:100F300018C02F5F3F4F2C30310571F790E08130A2
:100F4000910521F51092800082E08093810010923B
:100F5000850010928400B19A80916F008260809326
:100F60006F00888190E0FC01EE0FFF1FE80FF91F72
:100F7000E850FD4F8081806480838881DF91CF912C
:100F80001F910F91FF90EF90DF90089582309105AF
:100F900069F41092900082E0809391001092950085
:100FA0001092940088BB80937100DBCF8330910551
:100FB00069F41092A00082E08093A1001092A50035
:100FC0001092A40089BB80937200CBCF892B49F685
:100FD0001092200182E0809321011092250110924D
:100FE00024018ABB80937300BCCF20E639E040E245
:100FF00052E04ECF90E0FC013197E231F10508F06C
:101000004BC0EE58FF4FE5C0809180008F7703C042
:10101000809180008F7D8093800008958091800072
:10102000877FF9CF84B58F7702C084B58F7D84BD6B
:1010300008958091B0008F7703C08091B0008F7DBC
:101040008093B0000895809190008F7707C08091C1
:1010500090008F7D03C080919000877F80939000E7
:1010600008958091A0008F7707C08091A0008F7DA8
:1010700003C08091A000877F8093A0000895809195
:1010800020018F7707C0809120018F7D03C0809160
:101090002001877F809320010895CF93DF9390E014
:1010A000FC01E25BFE4F2491FC01EC56FE4F849163
:1010B000882349F190E0880F991FFC01EC50FE4F06
:1010C000A591B49186529E4FFC01C591D4919FB7D2
:1010D000611108C0F8948C91209582238C938881AB
:1010E00082230AC0623051F4F8948C91322F3095EB
:1010F00083238C938881822B888304C0F8948C91FD
:10110000822B8C939FBFDF91CF9108950F931F93F4
:10111000CF93DF931F92CDB7DEB7282F30E0F901D0
:10112000E85FFE4F8491F901E25BFE4F1491F901F3
:10113000EC56FE4F04910023C1F0882319F0698317
:1011400059DF6981E02FF0E0EE0FFF1FE652FE4FFE
:10115000A591B4919FB7F8948C91611103C010953B
:10116000812301C0812B8C939FBF0F90DF91CF9182
:101170001F910F910895991B79E004C0991F96174C
:1011800008F0961B881F7A95C9F780950895A1E20B
:101190001A2EAA1BBB1BFD010DC0AA1FBB1FEE1FF1
:1011A000FF1FA217B307E407F50720F0A21BB30B3C
:1011B000E40BF50B661F771F881F991F1A9469F7B8
:1011C00060957095809590959B01AC01BD01CF0114
:1011D0000895EE0FFF1F0590F491E02D19940790EC
:1011E000F691E02D1994CF93DF938230910510F49E
:1011F00082E090E0E0918A03F0918B0320E030E000
:10120000A0E0B0E0309739F140815181481759078B
:10121000B8F04817590771F482819381109729F02B
:1012200013969C938E9312972CC090938B0380936C
:101230008A0327C02115310531F04217530718F0F2
:10124000A901DB0101C0EF019A01BD01DF010280AC
:10125000F381E02DD7CF21153105F9F0281B390B8B
:101260002430310580F48A819B816115710521F05C
:10127000FB019383828304C090938B0380938A0342
:10128000FE01329644C0FE01E20FF31F8193919359
:1012900022503109398328833AC020918803309144
:1012A0008903232B41F420910202309103023093F1
:1012B00089032093880320910002309101022115B7
:1012C000310541F42DB73EB740910402509105021B
:1012D000241B350BE0918803F0918903E217F30793
:1012E000A0F42E1B3F0B2817390778F0AC014E5F96
:1012F0005F4F2417350748F04E0F5F1F5093890347
:10130000409388038193919302C0E0E0F0E0CF0125
:10131000DF91CF910895CF93DF93009709F487C0B1
:10132000FC01329713821282C0918A03D0918B0301
:10133000209781F420813181280F391F8091880303
:10134000909189038217930779F5F0938903E093CD
:1013500088036DC0DE0120E030E0AE17BF0750F417
:1013600012964D915C9113979D014115510509F11C
:10137000DA01F3CFB383A28340815181840F951F9B
:101380008A179B0771F48D919C911197840F951F7B
:1013900002969183808312968D919C9113979383EB
:1013A00082832115310529F4F0938B03E0938A039E
:1013B0003EC0D9011396FC93EE9312974D915D9127
:1013C000A40FB51FEA17FB0779F480819181840F80
:1013D000951F0296D90111969C938E9382819381D9
:1013E00013969C938E931297E0E0F0E08A819B81A4
:1013F000009719F0FE01EC01F9CFCE010296288189
:101400003981820F931F2091880330918903281717
:10141000390769F4309729F410928B0310928A03EC
:1014200002C013821282D0938903C0938803DF9194
:10143000CF9108956F927F928F929F92AF92BF92B9
:10144000CF92DF92EF92FF920F931F93CF93DF9390
:10145000EC01CB01209779F4DF91CF911F910F918F
:10146000FF90EF90DF90CF90BF90AF909F908F90C4
:101470007F906F90B8CEFE01E60FF71F9E012250BD
:101480003109E217F30708F4A8C0D9010D911C91A6
:10149000119706171707B0F00530110508F49BC027
:1014A000A801445051094617570708F494C0025048
:1014B0001109061B170B019311936D937C93CF01B8
:1014C0002ADF89C05B01A01AB10A4E01800E911E6D
:1014D000A0918A03B0918B03612C712C60E070E0C5
:1014E000109709F449C0A815B905C9F5ED90FC900D
:1014F0001197670142E0C40ED11CCA14DB0478F1D5
:1015000047018A189B08640142E0C40ED11C129660
:10151000BC9012971396AC91B5E0CB16D10440F075
:10152000B282A38391828082D9018D939C9309C05A
:101530000E5F1F4F0E0D1F1DF90111830083EB2D50
:10154000FA2F6115710531F0DB011396FC93EE93D0
:10155000129741C0F0938B03E0938A033CC06D91D6
:101560007C9111976616770608F43B01BD0112962F
:101570000D90BC91A02DB4CF609188037091890328
:1015800068157905E9F468167906D0F440910002EF
:10159000509101024115510541F44DB75EB760917C
:1015A000040270910502461B570BE417F507A8F4D7
:1015B000F0938903E0938803F901918380830BC042
:1015C00012DE7C01009749F0A801BE0117D0CE01C0
:1015D000A2DEC70104C0CE0102C080E090E0DF912E
:1015E000CF911F910F91FF90EF90DF90CF90BF9020
:1015F000AF909F908F907F906F900895FB01DC01DA
:1016000002C001900D9241505040D8F70895FB015F
:10161000DC0101900D920020E1F7089512E0C2E193
:10162000D2E000E005C022970109FE010BBFD7DD23
:0E163000C431D10780E00807B1F7F894FFCF6E
:10163E0000008C038000010000002C00783D0009A2
:10164E00793D000973697A653D00096661636573CA
:10165E003D000000000030029F0386019F019101B2
:02166E000F0269
:00000001FF
