:1000000009C1000037C1000035C1000033C1000044
:1000100031C100002FC100002DC100002BC1000024
:1000200029C1000027C1000025C1000023C1000034
:1000300021C100001FC100001DC100001BC1000044
:1000400019C100000C94B90815C1000013C10000CB
:1000500011C100000FC100000DC100001FC700004A
:1000600009C1000058C400008CC4000003C1000096
:1000700001C10000FFC00000FDC00000FBC0000087
:100080000C94E608F7C00000F5C00000F3C00000C3
:10009000F1C00000EFC00000EDC00000EBC00000A8
:1000A000E9C00000E7C000000C941309E3C00000A1
:1000B000E1C00000DFC00000DDC000000C9440097A
:1000C000D9C00000D7C00000D5C00000D3C00000D8
:1000D000D1C00000CFC00000CDC00000CBC00000E8
:1000E000C9C000002E0B310B200B240B2A0B680B10
:1000F000350B390B3F0B430B470B4D0B510B550B7E
:10010000680B5B0B5F0B630B00000A0B02090C0D05
:100110000E080703040100000000000000000000BA
:1001200000000000000000000000000000000000CF
:10013000000000001211100000000000000000008C
:1001400000000000000000000000000000000102AC
:1001500010202008081020401020408002010201D9
:100160000804020101020408102040808040201091
:1001700008040201800402018040201008040201EA
:100180000804020101020408102040800102040852
:10019000102040800505050507050808080802022B
:1001A00002020A0A08080404040401010101010111
:1001B00001010303030303030303040707070C0CF4
:1001C0000C0C0C0C0C0C02020202060606060606BB
:1001D00006060B0B0B0B0B0B0B0B00002200250074
:1001E00028002B002E003100340002010000050120
:1001F00008010B0100002100240027002A002D0027
:100200003000330001010000040107010A01F5027A
:10021000F304000311241FBECFEFD1E2DEBFCDBF38
:1002200000E00CBF12E0A0E0B2E0E0E1FEE100E09F
:100230000BBF02C007900D92AA33B107D9F723E094
:10024000AAE3B2E001C01D92AE39B207E1F712E0B5
:10025000C2E1D2E000E006C022970109FE010BBF17
:100260000E94460CCE30D10780E00807A9F70CD6D3
:100270000C94F70EC5CE60E870E089E492E083D478
:1002800081E0809347020895CF92DF92EF92FF9230
:100290000F931F93CF93DF93CDB7DEB72C970FB695
:1002A000F894DEBF0FBECDBF8C016BE59CD57C0101
:1002B0006DE5C80198D5F7FC1FC097FD1DC0A701CB
:1002C0004F5F5F4F9C01B801CE0107968FD5BE01ED
:1002D000695F7F4FCE010196BAD46AE072E0CE0129
:1002E000019642D5BC01C8019DD4CE0101961DD412
:1002F000CE0107961AD404C066E272E0C801AFD4FA
:100300008FE4E82E82E0F82EF80184819581892B14
:1003100041F16CE2C80167D56C019C0140E050E0FE
:10032000B801CE01019662D5CE010196A2D5F701A2
:10033000619371937F01CE010196F7D3F801248177
:100340003581A6014F5F5F4FB801CE0101964ED5B2
:10035000BE016F5F7F4FC80165D4CE010196E5D322
:10036000D3CF2C960FB6F894DEBF0FBECDBFDF9172
:10037000CF911F910F91FF90EF90DF90CF90089554
:10038000CF93DF9300D000D0CDB7DEB78091470286
:10039000811101C070DF80914802882391F069E4E7
:1003A00072E0CE01019653D4CE0101966DDFCE01ED
:1003B0000196BBD366E272E089E492E050D41092D9
:1003C000480226960FB6F894DEBF0FBECDBFDF9170
:1003D000CF91089568E070E083E492E00E94360ACD
:1003E00069E070E080E492E00E94360A8AE590E0DD
:1003F00090933F0280933E0290933D0280933C0293
:100400006AE570E083E492E00E946E0A60913C022B
:1004100070913D0280E492E00E946E0A81E0809338
:1004200046020895CF92DF92EF92FF920F931F93AF
:10043000CF93DF93CDB7DEB760970FB6F894DEBFEA
:100440000FBECDBF8B012AE530E0DC010E94360CE7
:1004500020EE31E040E050E00E94140C69017A0186
:100460002AE530E0D8010E94360C20E832E040E076
:1004700050E00E94140C62E272E0CE0107962D87D4
:100480003E874F87588BB9D3BE01695F7F4FCE013E
:100490000196DDD3B601CE0101967ED464E272E00E
:1004A00063D42D853E85B90177D467E272E05CD4D0
:1004B000BC018FE592E029D3CE01019636D3A091FD
:1004C0003E02B0913F02B6016A1B7B0BE0913C02F9
:1004D000F0913D022D853E85C9018E1B9F0B663034
:1004E00071055CF46B3F1FEF71073CF4A61BB70B63
:1004F000B0933F02A0933E0204C0D0923F02C0924C
:100500003E02863091055CF48B3F6FEF96073CF41A
:10051000E81BF90BF0933D02E0933C0204C03093DA
:100520003D0220933C0260913E0270913F0283E4C1
:1005300092E0D4D760913C0270913D0280E492E059
:10054000CDD7CE010796F1D260960FB6F894DEBFF4
:100550000FBECDBFDF91CF911F910F91FF90EF9014
:10056000DF90CF90089580914602811101C032DF63
:1005700080914F029091500260915102709152020D
:1005800020913A0230913B022130310589F064F428
:10059000232B79F46AE570E083E492E09FD76AE563
:1005A00070E080E492E00EC02B30310564F001C0B1
:1005B00039CF6AE570E083E492E090D76AE570E0B5
:1005C00083E492E08BC7089526E040E855E260E0BE
:1005D00070E08FE592E03FC1D3DEC5DF81E090E0BF
:1005E00090933B0280933A02089566E272E089E4B8
:1005F00092E003D383E492E070D680E492E06DC68B
:1006000089E492E092C2CF93DF93D1E08FE592E04C
:1006100014D0892B79F08FE592E028D0C82F682F6D
:1006200089E492E05DD3CA3011F0CD3579F7D093EB
:100630004802ECCFDF91CF910895FC01818D228D8E
:1006400090E0805C9F4F821B91098F7399270895DA
:10065000FC01918D828D981731F0828DE80FF11D8C
:10066000858D90E008958FEF9FEF0895FC01918DA7
:10067000828D981761F0828DDF01A80FB11D5D9604
:100680008C91928D9F5F9F73928F90E008958FEF72
:100690009FEF08958AEE94E0892B39F083E093E090
:1006A000892B19F097D1811125C080E090E0892B2A
:1006B00041F080E090E0892B21F00E940000811140
:1006C0001BC080E090E0892B41F080E090E0892B16
:1006D00021F00E940000811112C080E090E0892B7F
:1006E00099F080E090E0892B79F00E940000811160
:1006F00009C0089588DFD9CF0E940000E2CF0E9490
:100700000000EBCF0C9400000895FC01848DDF0104
:10071000A80FB11DA35ABF4F2C91848D90E0019674
:100720008F739927848FA689B7892C93A089B18963
:100730008C9180648C93938D848D981306C002886D
:10074000F389E02D80818F7D80830895CF93DF939F
:10075000EC01888D8823C1F0EA89FB89808185FDC1
:1007600005C0A889B9898C9186FD0EC00FB607FC1B
:10077000F5CF808185FFF2CFA889B9898C9185FF5B
:10078000EDCFCE01C2DFE8CFDF91CF910895CF92B8
:10079000DF92FF920F931F93CF93DF931F92CDB7FA
:1007A000DEB76C01DC015B969C915B975C968C914B
:1007B0005C97981307C05096ED91FC9151978081FA
:1007C00085FD31C0F601038D10E00F5F1F4F0F73E1
:1007D0001127F02EF601848DF81210C00FB607FC19
:1007E000F9CFD6015096ED91FC915197808185FF0C
:1007F000F1CFC601698389DF6981ECCF838DE80F72
:10080000F11DE35AFF4F6083D6015B960C935B9713
:100810005296ED91FC91539780818062808381E0B4
:1008200058968C930DC0D6015696ED91FC91579732
:1008300060835096ED91FC91519780818064808314
:1008400081E090E00F90DF91CF911F910F91FF9089
:10085000DF90CF900895BF92CF92DF92EF92FF92F8
:10086000CF93DF93EC016A017B01B22EE889F9890D
:1008700082E08083411581EE58076105710599F08A
:1008800060E079E08DE390E0A7019601ABD72150BD
:1008900031094109510956954795379527952115F5
:1008A00080E1380790F0E889F989108260E874E8FF
:1008B0008EE190E0A701960195D7215031094109B9
:1008C00051095695479537952795EC85FD853083D9
:1008D000EE85FF852083188EEC89FD89B082EA8938
:1008E000FB89808180618083EA89FB8980818860BF
:1008F0008083EA89FB89808180688083EA89FB891B
:1009000080818F7D8083DF91CF91FF90EF90DF908A
:10091000CF90BF9008951F920F920FB60F9211249F
:100920000BB60F922F938F939F93EF93FF93E091CA
:100930006F02F09170028081E0917502F091760271
:1009400082FD12C09081809178028F5F8F73209119
:100950007902821751F0E0917802F0E0E15AFD4F00
:10096000958F8093780201C08081FF91EF919F91D4
:100970008F912F910F900BBE0F900FBE0F901F9075
:1009800018951F920F920FB60F9211240BB60F926B
:100990002F933F934F935F936F937F938F939F9387
:1009A000AF93BF93EF93FF938FE592E0AEDEFF919D
:1009B000EF91BF91AF919F918F917F916F915F91D7
:1009C0004F913F912F910F900BBE0F900FBE0F9044
:1009D0001F9018958FE592E030DE21E0892B09F415
:1009E00020E0822F0895109262021092610288EE38
:1009F00093E0A0E0B0E08093630290936402A09340
:100A00006502B09366028DE292E09093600280935B
:100A10005F0285EC90E090936C0280936B0284EC13
:100A200090E090936E0280936D0280EC90E0909342
:100A3000700280936F0281EC90E090937202809339
:100A4000710282EC90E0909374028093730286ECC2
:100A500090E0909376028093750210927802109243
:100A6000790210927A0210927B020895CF92DF925F
:100A7000EF92FF920F931F93CF93DF936C017A0154
:100A8000EB01E60EF71E00E010E0CE15DF0561F089
:100A90006991D601ED91FC910190F081E02DC601A4
:100AA0001995080F191FF1CFC801DF91CF911F9140
:100AB0000F91FF90EF90DF90CF900895DC01ED91C2
:100AC000FC91DB0114964D915C9115976D917C9191
:100AD0000280F381E02D1994DC01ED91FC910190ED
:100AE000F081E02D19940F931F93CF93DF93EC01C6
:100AF0006DE0F2DF8C016AE0CE01EEDF800F911F26
:100B0000DF91CF911F910F9108950F931F93CF9372
:100B1000DF93EC01D3DF8C01CE01E5DF800F911F65
:100B2000DF91CF911F910F910895FC0180819181F8
:100B300058C7CF93DF93EC0188819981009709F022
:100B400050D7198218821D821C821B821A82DF9163
:100B5000CF9108950F931F93CF93DF93EC018B01F7
:100B60006F5F7F4F88819981CBD7009731F0998350
:100B700088831B830A8381E001C080E0DF91CF91ED
:100B80001F910F910895CF93DF93EC018881998194
:100B9000892B29F08A819B818617970758F4CE010B
:100BA000D9DF882341F08C819D81892B19F4E8815C
:100BB000F981108281E0DF91CF910895EF92FF9249
:100BC0000F931F93CF93DF93EC017B018A01BA014E
:100BD000DADF811103C0CE01ACDF07C01D830C83B7
:100BE000B701888199810E949E0ECE01DF91CF913D
:100BF0001F910F91FF90EF900895FC0111821082D8
:100C000013821282158214826115710551F0FB0165
:100C100001900020E9F7AF0141505109461B570BE5
:100C2000CDCF0895CF93DF93EC01FB018617970793
:100C300051F0608171816115710521F04481558108
:100C4000BDDF01C076DFCE01DF91CF910895FC01B9
:100C5000118210821382128215821482E3CFCF9305
:100C6000DF93EC016115710559F0FB010190002043
:100C7000E9F7AF0141505109461B570B9FDF01C0F7
:100C800058DFCE01DF91CF910895EF92FF920F933D
:100C90001F93CF93DF93EC017B010C811D816115C4
:100CA000710511F480E015C04115510589F0040F5C
:100CB000151FB80168DF8823A9F3288139818C8149
:100CC0009D81B701820F931F0E949E0E1D830C838E
:100CD00081E0DF91CF911F910F91FF90EF900895E8
:100CE000CF93DF931F921F92CDB7DEB769831A822D
:100CF00041E050E0BE016F5F7F4FC7DF0F900F9064
:100D0000DF91CF910895EF92FF920F931F93CF93AE
:100D1000DF93CDB7DEB728970FB6F894DEBF0FBECE
:100D2000CDBF7C01CB014AE050E08E010F5F1F4F29
:100D3000B8010E94A50EF80101900020E9F7AF016B
:100D400041505109401B510BB801C7019EDF289645
:100D50000FB6F894DEBF0FBECDBFDF91CF911F91CC
:100D60000F91FF90EF900895CF93DF93EC01611501
:100D7000710561F0FB0101900020E9F7AF014150DE
:100D80005109461B570B81DF811102C0CE01D1DE14
:100D9000CE01DF91CF910895CF93DF93EC01B3DFC4
:100DA000811102C0CE01C5DECE01DF91CF91089541
:100DB000CF93DF93FC01848195814817590770F424
:100DC000C081D181772767FD7095CE01840F951F73
:100DD000AAD7009719F08C1B9D0B02C08FEF9FEFD5
:100DE000DF91CF91089540E050E0E2CFBF92CF92E3
:100DF000DF92EF92FF920F931F93CF93DF936C01DB
:100E00007B01EA0189012417350720F48D2FE901C0
:100E1000042F182F66E272E0C601EFDED7011496A8
:100E20008D919C911597C817D907C0F48017910729
:100E300008F48C01D701ED91FC911197E00FF11F9F
:100E4000B08010826D917C916C0F7D1FC60107DF11
:100E5000D701ED91FC91E00FF11FB082C601DF9147
:100E6000CF911F910F91FF90EF90DF90CF90BF90A7
:100E70000895FC0180819181009709F025C760E009
:100E800070E0CB010895089553D0FDDF9DDBCAE4E7
:100E9000D3E0A2DB2097E9F3FDDBFBCF1F920F929B
:100EA0000FB60F9211242F933F938F939F93AF937D
:100EB000BF938091FD029091FE02A091FF02B0913C
:100EC00000033091FC0223E0230F2D3720F401961C
:100ED000A11DB11D05C026E8230F0296A11DB11D5D
:100EE0002093FC028093FD029093FE02A093FF02E8
:100EF000B09300038091010390910203A09103033A
:100F0000B09104030196A11DB11D8093010390933C
:100F10000203A0930303B0930403BF91AF919F9189
:100F20008F913F912F910F900FBE0F901F901895AA
:100F3000789484B5826084BD84B5816084BD85B5B4
:100F4000826085BD85B5816085BDEEE6F0E080817B
:100F500081608083E1E8F0E010828081826080839C
:100F6000808181608083E0E8F0E08081816080831F
:100F7000E1EBF0E0808184608083E0EBF0E0808151
:100F800081608083E1E9F0E08081826080838081FC
:100F900081608083E0E9F0E0808181608083E1EA24
:100FA000F0E0808182608083808181608083E0EADC
:100FB000F0E0808181608083E1E2F1E08081826005
:100FC0008083808181608083E0E2F1E080818160C4
:100FD0008083EAE7F0E080818460808380818260A2
:100FE000808380818160808380818068808310928B
:100FF000C1000895CF92DF92EF92FF920F931F935B
:10100000CF93DF936C018B017A01EC01CA5FDC4F57
:10101000888187FF04C0FB011182108223C02CE06D
:101020002C9DC0012D9D900D11242881AC01420FF3
:10103000511D27FD5A952091050330E042175307B3
:101040008CF42881AC01420F511D27FD5A959A015D
:10105000FA01EE0FFF1FE20FF31FE65FFC4F208146
:1010600026FD19C088818F5F88838CE08C9D90015C
:101070008D9D300D11248881A901480F511D87FDD8
:101080005A958091050390E048175907ACF4888180
:101090008C3034F111C02881820F911D27FD9A9563
:1010A000FC01EE0FFF1FE80FF91FE65FFC4F808188
:1010B00060E08F7347D3D6CFF80180819181049689
:1010C00080349C4918F480E49CE904C0F8018081D4
:1010D00091810496F701918380838FEF888340C0CC
:1010E000F801808191814881B901640F711D47FD2C
:1010F0007A95AB01FB01EE0FFF1FE40FF51FE65FD2
:10110000FC4F41815281840F951FF70191838083A9
:101110008881A901480F511D87FD5A95FA01EE0FEC
:10112000FF1FE40FF51FE65FFC4F808186FF18C0AC
:101130008881280F311D87FD3A95F901EE0FFF1FB9
:10114000E20FF31FE65FFC4F808161E08F73DF9158
:10115000CF911F910F91FF90EF90DF90CF90F2C24F
:10116000DF91CF911F910F91FF90EF90DF90CF9083
:1011700008951F920F920FB60F9211240BB60F9283
:101180002F933F934F935F936F937F938F939F938F
:10119000AF93BF93EF93FF9348E850E064E870E0AB
:1011A00081E090E027DFFF91EF91BF91AF919F9198
:1011B0008F917F916F915F914F913F912F910F9000
:1011C0000BBE0F900FBE0F901F9018951F920F929D
:1011D0000FB60F9211240BB60F922F933F934F939C
:1011E0005F936F937F938F939F93AF93BF93EF938F
:1011F000FF9348E950E064E970E082E090E0FADEB5
:10120000FF91EF91BF91AF919F918F917F916F91DE
:101210005F914F913F912F910F900BBE0F900FBE9A
:101220000F901F9018951F920F920FB60F921124D6
:101230000BB60F922F933F934F935F936F937F93D0
:101240008F939F93AF93BF93EF93FF9348EA50E040
:1012500064EA70E083E090E0CDDEFF91EF91BF9112
:10126000AF919F918F917F916F915F914F913F913E
:101270002F910F900BBE0F900FBE0F901F901895DF
:101280001F920F920FB60F9211240BB60F922F934D
:101290003F934F935F936F937F938F939F93AF93FE
:1012A000BF93EF93FF9348E251E064E271E080E086
:1012B00090E0A0DEFF91EF91BF91AF919F918F9150
:1012C0007F916F915F914F913F912F910F900BBE46
:1012D0000F900FBE0F901F9018952091050320339B
:1012E000A0F431E0320F30930503FC012083822FFC
:1012F00090E0FC01EE0FFF1FE80FF91FE65FFC4FC7
:1013000088EB9BE09283818308952FEFFC0120837B
:101310000895DF92EF92FF920F931F93CF93DF9385
:10132000EC01D62E7A0189018881803308F066C0ED
:1013300061E08D2DCED18881A82FB0E0FD01EE0FA8
:10134000FF1FEA0FFB1FE65FFC4F2D2D2F739081CF
:10135000907C922B908360E272E06E197F0977FF98
:1013600002C06D5F7F4F7595679575956795698329
:1013700040E659E0401B510B57FF02C04D5F5F4FE5
:1013800055954795559547954A836CE01FD29CE04B
:10139000899FB001112420E030E0A901460F571FBA
:1013A000FA01EE0FFF1FE40FF51FE65FFC4F90817F
:1013B00096FD18C02F5F3F4F2C30310571F790E03C
:1013C0008130910521F51092800082E080938100A8
:1013D0001092850010928400B19A80916F00826013
:1013E00080936F00888190E0FC01EE0FFF1FE80FF3
:1013F000F91FE65FFC4F8081806480838881DF91E4
:10140000CF911F910F91FF90EF90DF900895823060
:10141000910569F41092900082E0809391001092FF
:1014200095001092940088BB80937100DBCF8330CD
:10143000910569F41092A00082E08093A1001092BF
:10144000A5001092A40089BB80937200CBCF892B9A
:1014500049F61092200182E080932101109225012B
:10146000109224018ABB80937300BCCF20E639E040
:1014700040E252E04ECFFC018081803370F59181D3
:1014800028E830E0291B310997FD3395220F331FDF
:10149000220F331F621773077CF0928128E532E038
:1014A000291B310997FD3395220F331F220F331F5C
:1014B000621773070CF49B0122503109220F331F6E
:1014C0004FB7F89490E0FC01EE0FFF1FE80FF91FF3
:1014D000E65FFC4F328321834FBF08954F925F92A6
:1014E0006F927F92AF92BF92CF92DF92EF92FF9274
:1014F0000F931F93CF93DF93EC01603282E0780764
:101500000CF03FC077FD06C0653B71052CF064EB25
:1015100070E002C060E070E0898128E830E0281BBC
:10152000310987FD3395220F331F220F331F5901D5
:10153000CC24B7FCC094DC2C882777FD8095982FAD
:101540002A8148E552E0421B510927FD5395440F7B
:10155000551F440F551F2A01662457FC6094762CB2
:101560007F926F925F924F9214EBE12EF12C00E08C
:1015700010E020E030E0A90114D00F900F900F9000
:101580000F90CE01DF91CF911F910F91FF90EF90BF
:10159000DF90CF90BF90AF907F906F905F904F9013
:1015A0006ACF4F925F926F927F92AF92BF92CF922B
:1015B000DF92EF92FF920F931F93CF93DF93CDB7FC
:1015C000DEB729013A01621B730B840B950B2A8944
:1015D0003B894C895D892A193B094C095D092A8B95
:1015E0003B8B4C8B5D8B9B01AC016A897B898C8921
:1015F0009D89DDD0E418F50806091709A8019701AF
:1016000013D12A0D3B1D4C1D5D1DCA01B901DF918F
:10161000CF911F910F91FF90EF90DF90CF90BF90EF
:10162000AF907F906F905F904F90089590E0FC0195
:101630003197E231F10508F04BC0EE58FF4F10C171
:10164000809180008F7703C0809180008F7D809390
:101650008000089580918000877FF9CF84B58F77CF
:1016600002C084B58F7D84BD08958091B0008F77CE
:1016700003C08091B0008F7D8093B0000895809169
:1016800090008F7707C0809190008F7D03C080917C
:101690009000877F8093900008958091A0008F77BD
:1016A00007C08091A0008F7D03C08091A000877F3C
:1016B0008093A0000895809120018F7707C08091CA
:1016C00020018F7D03C080912001877F80932001BE
:1016D0000895CF93DF9390E0FC01E25BFE4F2491ED
:1016E000FC01EC56FE4F8491882349F190E0880F6D
:1016F000991FFC01EC50FE4FA591B49186529E4F6C
:10170000FC01C591D4919FB7611108C0F8948C91E8
:10171000209582238C93888182230AC0623051F401
:10172000F8948C91322F309583238C938881822B6F
:10173000888304C0F8948C91822B8C939FBFDF9197
:10174000CF9108950F931F93CF93DF931F92CDB73F
:10175000DEB7282F30E0F901E85FFE4F8491F901F0
:10176000E25BFE4F1491F901EC56FE4F0491002309
:10177000C1F0882319F0698359DF6981E02FF0E017
:10178000EE0FFF1FE652FE4FA591B4919FB7F8945C
:101790008C91611103C01095812301C0812B8C9322
:1017A0009FBF0F90DF91CF911F910F910895DB01A3
:1017B0008F939F9361D0BF91AF91A29F800D911D98
:1017C000A39F900DB29F900D11240895991B79E06D
:1017D00004C0991F961708F0961B881F7A95C9F7C1
:1017E00080950895A1E21A2EAA1BBB1BFD010DC016
:1017F000AA1FBB1FEE1FFF1FA217B307E407F507C1
:1018000020F0A21BB30BE40BF50B661F771F881F9C
:10181000991F1A9469F760957095809590959B0132
:10182000AC01BD01CF010895052E97FB16F400947D
:101830000FD057FD05D0D6DF07FC02D046F408C014
:1018400050954095309521953F4F4F4F5F4F0895EC
:1018500090958095709561957F4F8F4F9F4F08951C
:10186000EE0FFF1F0590F491E02D199413D0B7FFF0
:101870000895821B930B08950DD0A59F900DB49FE2
:10188000900DA49F800D911D112408950790F6914D
:10189000E02D1994A29FB001B39FC001A39F700DCA
:1018A000811D1124911DB29F700D811D1124911D68
:1018B0000895CF93DF938230910510F482E090E099
:1018C000E0919C03F0919D0320E030E0A0E0B0E0C7
:1018D000309739F14081518148175907B8F04817BE
:1018E000590771F482819381109729F013969C9384
:1018F0008E9312972CC090939D0380939C0327C0D6
:101900002115310531F04217530718F0A901DB0109
:1019100001C0EF019A01BD01DF010280F381E02DDA
:10192000D7CF21153105F9F0281B390B24303105AB
:1019300080F48A819B816115710521F0FB019383FD
:10194000828304C090939D0380939C03FE01329692
:1019500044C0FE01E20FF31F81939193225031099D
:10196000398328833AC020919A0330919B03232B1B
:1019700041F4209102023091030230939B032093A3
:101980009A0320910002309101022115310541F4A2
:101990002DB73EB74091040250910502241B350B30
:1019A000E0919A03F0919B03E217F307A0F42E1B3A
:1019B0003F0B2817390778F0AC014E5F5F4F2417B3
:1019C000350748F04E0F5F1F50939B0340939A03D7
:1019D0008193919302C0E0E0F0E0CF01DF91CF91DD
:1019E0000895CF93DF93009709F487C0FC013297E5
:1019F00013821282C0919C03D0919D03209781F4A1
:101A000020813181280F391F80919A0390919B0387
:101A10008217930779F5F0939B03E0939A036DC0C7
:101A2000DE0120E030E0AE17BF0750F412964D9172
:101A30005C9113979D014115510509F1DA01F3CF2E
:101A4000B383A28340815181840F951F8A179B071E
:101A500071F48D919C911197840F951F029691833B
:101A6000808312968D919C91139793838283211585
:101A7000310529F4F0939D03E0939C033EC0D90106
:101A80001396FC93EE9312974D915D91A40FB51FA1
:101A9000EA17FB0779F480819181840F951F0296E4
:101AA000D90111969C938E938281938113969C9376
:101AB0008E931297E0E0F0E08A819B81009719F005
:101AC000FE01EC01F9CFCE01029628813981820F07
:101AD000931F20919A0330919B032817390769F4CB
:101AE000309729F410929D0310929C0302C0138238
:101AF0001282D0939B03C0939A03DF91CF910895F4
:101B00006F927F928F929F92AF92BF92CF92DF920D
:101B1000EF92FF920F931F93CF93DF93EC01CB01D2
:101B2000209779F4DF91CF911F910F91FF90EF9063
:101B3000DF90CF90BF90AF909F908F907F906F90ED
:101B4000B8CEFE01E60FF71F9E0122503109E217C1
:101B5000F30708F4A8C0D9010D911C91119706173D
:101B60001707B0F00530110508F49BC0A8014450D8
:101B700051094617570708F494C002501109061B73
:101B8000170B019311936D937C93CF012ADF89C0CA
:101B90005B01A01AB10A4E01800E911EA0919C0318
:101BA000B0919D03612C712C60E070E0109709F4F6
:101BB00049C0A815B905C9F5ED90FC9011976701CA
:101BC00042E0C40ED11CCA14DB0478F147018A1824
:101BD0009B08640142E0C40ED11C1296BC9012977F
:101BE0001396AC91B5E0CB16D10440F0B282A3833A
:101BF00091828082D9018D939C9309C00E5F1F4F03
:101C00000E0D1F1DF90111830083EB2DFA2F6115B5
:101C1000710531F0DB011396FC93EE93129741C0EE
:101C2000F0939D03E0939C033CC06D917C911197D0
:101C30006616770608F43B01BD0112960D90BC9123
:101C4000A02DB4CF60919A0370919B03681579051C
:101C5000E9F468167906D0F440910002509101022F
:101C60004115510541F44DB75EB760910402709182
:101C70000502461B570BE417F507A8F4F0939B03E6
:101C8000E0939A03F901918380830BC012DE7C01FB
:101C9000009749F0A801BE013DD0CE01A2DEC701E8
:101CA00004C0CE0102C080E090E0DF91CF911F918F
:101CB0000F91FF90EF90DF90CF90BF90AF909F90EB
:101CC0008F907F906F9008951F93FC01992788272C
:101CD000BC01E89411911032E9F3193010F01E3074
:101CE000C8F31B3249F01D3241F4689405C041D05D
:101CF000610F711D811D911D119110531A30B8F3A0
:101D00003EF490958095709561957F4F8F4F9F4FD2
:101D10001F910895FB01DC0102C001900D9241501A
:101D20005040D8F70895FC018191861721F088234F
:101D3000D9F7992708953197CF010895FB01DC0168
:101D400001900D920020E1F708954532510518F4F5
:101D5000423008F004C0FB011082CB010895BB277C
:101D60004A3031F4992322F4BDE2909581959F4F3A
:101D700016C0592F482F372F262F660F771F881F21
:101D8000991F660F771F881F991F620F731F841F8B
:101D9000951F660F771F881F991F0895BB27FB01AA
:101DA0005527AA27880F991FAA1FA41710F0A41B54
:101DB00083955051B9F7A05DAA3308F0A95DA193AE
:101DC000009779F7B111B1931192CB0100C0DC01FA
:101DD000FC01672F71917723E1F7329704C07C9162
:101DE0006D9370836291AE17BF07C8F3089512E038
:101DF000C2E1D2E000E005C022970109FE010BBF5D
:101E000045DDC431D10780E00807B1F7F894FFCF72
:101E100000009E038000010000002C00783D0009B6
:101E2000793D000973697A653D00096661636573F0
:101E30003D005B002C20005D0000000000C7033661
:0A1E4000051D0336032803A6030066
:00000001FF
