:1000000036C000005AC0000058C0000056C00000B2
:1000100054C0000052C0000050C000004EC000009C
:100020004CC000004AC0000048C0000046C00000AC
:1000300044C0000042C0000040C000003EC00000BC
:1000400046C500003AC000008BC20000BBC20000E1
:1000500034C0000032C0000030C000002EC00000DC
:100060002CC000002AC000004F01100354011124CD
:100070001FBECFEFD8E0DEBFCDBF11E0A0E0B1E002
:10008000E8EAF1E102C005900D92A032B107D9F77C
:1000900021E0A0E2B1E001C01D92A13EB207E1F76C
:1000A00010E0CCE6D0E003C02297FE01B9D5C836F7
:1000B000D107D1F702D50C94C808A2CF26E040E8BA
:1000C00055E260E070E087E391E0EAD160E870E03B
:1000D00081E291E075C3CF92DF92EF92FF920F938E
:1000E0001F93CF93DF93CDB7DEB72C970FB6F8945D
:1000F000DEBF0FBECDBF8C016BE58ED47C016DE5FC
:10010000C8018AD4F7FC1FC097FD1DC0A7014F5F2F
:100110005F4F9C01B801CE01079681D4BE01695F93
:100120007F4FCE010196AFD366E071E0CE0101961C
:1001300034D4BC01C80192D3CE01019613D3CE01B1
:10014000079610D304C067E071E0C801A4D387E22A
:10015000E82E81E0F82EF80184819581892B41F108
:100160006CE2C80159D46C019C0140E050E0B80138
:10017000CE01019654D4CE01019694D4F701619337
:1001800071937F01CE010196EDD2F8012481358172
:10019000A6014F5F5F4FB801CE01019640D4BE016A
:1001A0006F5F7F4FC8015AD3CE010196DBD2D3CF08
:1001B0002C960FB6F894DEBF0FBECDBFDF91CF9166
:1001C0001F910F91FF90EF90DF90CF900895EF92E5
:1001D000FF920F931F93CF93DF93CDB7DEB72C978A
:1001E0000FB6F894DEBF0FBECDBF68E071E0CE0160
:1001F00007961FD30091290110912A01E090270151
:10020000F0902801BE01695F7F4FCE0101963BD37C
:10021000B701CE010196D9D36BE071E0BED3B8012E
:10022000D4D3BC0187E391E08DD2CE0101969AD25E
:10023000CE01079697D22C960FB6F894DEBF0FBE6C
:10024000CDBFDF91CF911F910F91FF90EF90089557
:10025000CF93DF9300D000D000D0CDB7DEB7809130
:100260002001882399F061E271E0CE0101960BD361
:10027000CE01019630DFCE01019674D2A8DF67E08F
:1002800071E081E291E007D31092200126960FB62B
:10029000F894DEBF0FBECDBFDF91CF91089567E028
:1002A00071E081E291E0C5C281E291E05BC2CF934F
:1002B000DF93D1E087E391E014D0892B79F087E3D5
:1002C00091E028D0C82F682F81E291E024D3CA3072
:1002D00011F0CD3579F7D0932001ECCFDF91CF919C
:1002E0000895FC01818D228D90E0805C9F4F821BE0
:1002F00091098F7399270895FC01918D828D98172C
:1003000031F0828DE80FF11D858D90E008958FEF1B
:100310009FEF0895FC01918D828D981761F0828D79
:10032000DF01A80FB11D5D968C91928D9F5F9F7329
:10033000928F90E008958FEF9FEF089587E093E00C
:10034000892B39F087E591E0892B19F060D1811173
:10035000AECF0895FC01848DDF01A80FB11DA35A13
:10036000BF4F2C91848D90E001968F739927848FD5
:10037000A689B7892C93A089B1898C9180648C93CC
:10038000938D848D981306C00288F389E02D8081B7
:100390008F7D80830895CF93DF93EC01888D882330
:1003A000C1F0EA89FB89808185FD05C0A889B989EA
:1003B0008C9186FD0EC00FB607FCF5CF808185FFBE
:1003C000F2CFA889B9898C9185FFEDCFCE01C2DF2C
:1003D000E8CFDF91CF910895CF92DF92FF920F93F4
:1003E0001F93CF93DF931F92CDB7DEB76C01DC0173
:1003F0005B969C915B975C968C915C97981307C079
:100400005096ED91FC915197808185FD31C0F601A8
:10041000038D10E00F5F1F4F0F731127F02EF601B1
:10042000848DF81210C00FB607FCF9CFD601509694
:10043000ED91FC915197808185FFF1CFC6016983D1
:1004400089DF6981ECCF838DE80FF11DE35AFF4FFF
:100450006083D6015B960C935B975296ED91FC916D
:10046000539780818062808381E058968C930DC081
:10047000D6015696ED91FC91579760835096ED9179
:10048000FC91519780818064808381E090E00F909F
:10049000DF91CF911F910F91FF90DF90CF90089542
:1004A000BF92CF92DF92EF92FF92CF93DF93EC0156
:1004B0006A017B01B22EE889F98982E080834115C7
:1004C00081EE58076105710599F060E079E08DE3F0
:1004D00090E0A701960180D32150310941095109CB
:1004E0005695479537952795211580E1380790F067
:1004F000E889F989108260E874E88EE190E0A7014C
:1005000096016AD321503109410951095695479501
:1005100037952795EC85FD853083EE85FF85208313
:10052000188EEC89FD89B082EA89FB89808180611F
:100530008083EA89FB89808188608083EA89FB89DE
:10054000808180688083EA89FB8980818F7D8083B8
:10055000DF91CF91FF90EF90DF90CF90BF90089503
:100560001F920F920FB60F9211242F938F939F9388
:10057000EF93FF93E0914701F09148018081E09172
:100580004D01F0914E0182FD12C090818091500189
:100590008F5F8F7320915101821751F0E0915001CC
:1005A000F0E0E95CFE4F958F8093500101C080819F
:1005B000FF91EF919F918F912F910F900FBE0F9010
:1005C0001F9018951F920F920FB60F9211242F9320
:1005D0003F934F935F936F937F938F939F93AF93CB
:1005E000BF93EF93FF9387E391E0B4DEFF91EF9128
:1005F000BF91AF919F918F917F916F915F914F913B
:100600003F912F910F900FBE0F901F90189587E389
:1006100091E067DE21E0892B09F420E0822F089524
:1006200010923A011092390188EE93E0A0E0B0E018
:1006300080933B0190933C01A0933D01B0933E0118
:1006400083E191E0909338018093370185EC90E04D
:10065000909344018093430184EC90E09093460191
:100660008093450180EC90E090934801809347018E
:1006700081EC90E090934A018093490182EC90E0F4
:1006800090934C0180934B0186EC90E090934E0147
:1006900080934D011092500110925101109252011D
:1006A000109253010895CF92DF92EF92FF920F9331
:1006B0001F93CF93DF936C017A01EB01E60EF71ED7
:1006C00000E010E0CE15DF0561F06991D601ED91F3
:1006D000FC910190F081E02DC6010995080F191FCA
:1006E000F1CFC801DF91CF911F910F91FF90EF9053
:1006F000DF90CF900895DC01ED91FC91DB01149621
:100700004D915C9115976D917C910280F381E02D64
:100710000994DC01ED91FC910190F081E02D0994A8
:100720000F931F93CF93DF93EC016DE0F2DF8C0109
:100730006AE0CE01EEDF800F911FDF91CF911F9114
:100740000F9108950F931F93CF93DF93EC01D3DFA5
:100750008C01CE01E5DF800F911FDF91CF911F91BA
:100760000F910895FC0180819181F6C2CF93DF93B0
:10077000EC0188819981009709F0EED219821882E4
:100780001D821C821B821A82DF91CF9108950F93E4
:100790001F93CF93DF93EC018B016F5F7F4F8881B5
:1007A000998169D3009731F0998388831B830A83E9
:1007B00081E001C080E0DF91CF911F910F910895FA
:1007C000CF93DF93EC0188819981892B29F08A816D
:1007D0009B818617970758F4CE01D9DF882341F013
:1007E0008C819D81892B19F4E881F981108281E047
:1007F000DF91CF910895EF92FF920F931F93CF93C4
:10080000DF93EC017B018A01BA01DADF811103C0B9
:10081000CE01ACDF06C01D830C83B70188819981AE
:1008200027D4CE01DF91CF911F910F91FF90EF90D0
:100830000895FC01118210821382128215821482A3
:100840006115710551F0FB0101900020E9F7AF013E
:1008500041505109461B570BCECF0895CF93DF93DC
:10086000EC01FB018617970751F0608171816115DA
:10087000710521F044815581BEDF01C077DFCE01D3
:10088000DF91CF910895FC011182108213821282B0
:1008900015821482E3CFCF93DF93EC0161157105CC
:1008A00059F0FB0101900020E9F7AF0141505109D7
:1008B000461B570BA0DF01C059DFCE01DF91CF915E
:1008C0000895EF92FF920F931F93CF93DF93EC0164
:1008D0007B010C811D816115710511F480E014C04C
:1008E0004115510581F0040F151FB80169DF8823F8
:1008F000A9F3288139818C819D81B701820F931FD3
:10090000B7D31D830C8381E0DF91CF911F910F91AD
:10091000FF90EF900895CF93DF9300D0CDB7DEB76F
:1009200069831A8241E050E0BE016F5F7F4FC9DFEB
:100930000F900F90DF91CF910895EF92FF920F9358
:100940001F93CF93DF93CDB7DEB728970FB6F894F8
:10095000DEBF0FBECDBF7C01CB014AE050E08E016F
:100960000F5F1F4FB8018BD3F80101900020E9F70A
:10097000AF0141505109401B510BB801C701A1DF24
:1009800028960FB6F894DEBF0FBECDBFDF91CF9192
:100990001F910F91FF90EF900895CF93DF93EC019B
:1009A0006115710561F0FB0101900020E9F7AF01CD
:1009B00041505109461B570B84DF811102C0CE0103
:1009C000D5DECE01DF91CF910895CF93DF93EC0177
:1009D000B4DF811102C0CE01C9DECE01DF91CF911B
:1009E0000895CF93DF93FC018481958148175907BF
:1009F00070F4C081D181772767FD7095CE01840F97
:100A0000951F2BD3009719F08C1B9D0B02C08FEF05
:100A10009FEFDF91CF91089540E050E0E2CFBF9289
:100A2000CF92DF92EF92FF920F931F93CF93DF93BA
:100A30006C017B01EA0189012417350720F48D2F11
:100A4000E901042F182F67E071E0C601F2DED7013B
:100A500014968D919C911597C817D907C0F48017EB
:100A6000910708F48C01D701ED91FC911197E00FEB
:100A7000F11FB08010826D917C916C0F7D1FC601BB
:100A80000ADFD701ED91FC91E00FF11FB082C601A2
:100A9000DF91CF911F910F91FF90EF90DF90CF905A
:100AA000BF900895FC0180819181009709F0A6C252
:100AB00060E070E0CB010895089553D0FDDFFEDAC9
:100AC000CEE9D1E0C5DB2097E9F338DCFBCF1F92FC
:100AD0000F920FB60F9211242F933F938F939F93F2
:100AE000AF93BF938091D5019091D601A091D7018A
:100AF000B091D8013091D40123E0230F2D3720F499
:100B00000196A11DB11D05C026E8230F0296A11D67
:100B1000B11D2093D4018093D5019093D601A09369
:100B2000D701B093D8018091D9019091DA01A091B9
:100B3000DB01B091DC010196A11DB11D8093D901AB
:100B40009093DA01A093DB01B093DC01BF91AF91E8
:100B50009F918F913F912F910F900FBE0F901F90FB
:100B60001895789484B5826084BD84B5816084BD15
:100B700085B5826085BD85B5816085BDEEE6F0E016
:100B8000808181608083E1E8F0E010828081826072
:100B90008083808181608083E0E8F0E080818160F3
:100BA0008083E1EBF0E0808184608083E0EBF0E023
:100BB000808181608083EAE7F0E0808184608083C7
:100BC0008081826080838081816080838081806871
:100BD00080831092C1000895A1E21A2EAA1BBB1BAC
:100BE000FD010DC0AA1FBB1FEE1FFF1FA217B307F9
:100BF000E407F50720F0A21BB30BE40BF50B661F0F
:100C0000771F881F991F1A9469F7609570958095D2
:100C100090959B01AC01BD01CF010895EE0FFF1F20
:100C20000590F491E02D0994CF93DF9382309105E4
:100C300010F482E090E0E091DF01F091E00120E02B
:100C400030E0A0E0B0E0309739F1408151814817A1
:100C50005907B8F04817590771F4828193811097AA
:100C600029F013969C938E9312972CC09093E001D9
:100C70008093DF0127C02115310531F0421753075A
:100C800018F0A901DB0101C0EF019A01BD01DF01EC
:100C90000280F381E02DD7CF21153105F9F0281B13
:100CA000390B2430310580F48A819B8161157105EF
:100CB00021F0FB019383828304C09093E001809331
:100CC000DF01FE01329644C0FE01E20FF31F819363
:100CD000919322503109398328833AC02091DD0154
:100CE0003091DE01232B41F4209102013091030168
:100CF0003093DE012093DD0120910001309101014C
:100D00002115310541F42DB73EB7409104015091B2
:100D10000501241B350BE091DD01F091DE01E217A6
:100D2000F307A0F42E1B3F0B2817390778F0AC010E
:100D30004E5F5F4F2417350748F04E0F5F1F5093EB
:100D4000DE014093DD018193919302C0E0E0F0E089
:100D5000CF01DF91CF910895CF93DF93009709F4EE
:100D600087C0FC01329713821282C091DF01D091BB
:100D7000E001209781F420813181280F391F809173
:100D8000DD019091DE018217930779F5F093DE0182
:100D9000E093DD016DC0DE0120E030E0AE17BF075B
:100DA00050F412964D915C9113979D014115510598
:100DB00009F1DA01F3CFB383A28340815181840F1B
:100DC000951F8A179B0771F48D919C911197840F41
:100DD000951F02969183808312968D919C91139713
:100DE000938382832115310529F4F093E001E09388
:100DF000DF013EC0D9011396FC93EE9312974D91FB
:100E00005D91A40FB51FEA17FB0779F480819181EA
:100E1000840F951F0296D90111969C938E9382811F
:100E2000938113969C938E931297E0E0F0E08A8171
:100E30009B81009719F0FE01EC01F9CFCE010296DB
:100E400028813981820F931F2091DD013091DE01CD
:100E50002817390769F4309729F41092E0011092AD
:100E6000DF0102C013821282D093DE01C093DD0144
:100E7000DF91CF910895A0E0B0E0E0E4F7E055C144
:100E8000EC01CB01209711F4CFDEB4C0FE01E60FD8
:100E9000F71F9E0122503109E217F30708F4A8C09A
:100EA000D9010D911C91119706171707B0F0053065
:100EB000110508F49BC0A801445051094617570773
:100EC00008F494C002501109061B170B01931193EB
:100ED0006D937C93CF0140DF89C05B01A01AB10AFA
:100EE0004E01800E911EA091DF01B091E001612CB6
:100EF000712C60E070E0109709F449C0A815B9059D
:100F0000C9F5ED90FC901197670142E0C40ED11C29
:100F1000CA14DB0478F147018A189B08640142E097
:100F2000C40ED11C1296BC9012971396AC91B5E0EA
:100F3000CB16D10440F0B282A38391828082D90182
:100F40008D939C9309C00E5F1F4F0E0D1F1DF9015D
:100F500011830083EB2DFA2F6115710531F0DB0150
:100F60001396FC93EE93129741C0F093E001E09347
:100F7000DF013CC06D917C9111976616770608F4ED
:100F80003B01BD0112960D90BC91A02DB4CF609194
:100F9000DD017091DE0168157905E9F468167906BE
:100FA000D0F440910001509101014115510541F4E7
:100FB0004DB75EB76091040170910501461B570B58
:100FC000E417F507A8F4F093DE01E093DD01F901E1
:100FD000918380830BC028DE7C01009749F0A80133
:100FE000BE0132D0CE01B8DEC70104C0CE0102C0BE
:100FF00080E090E0CDB7DEB7EEE0B3C01F93FC0118
:1010000099278827BC01E89411911032E9F319302F
:1010100010F01E30C8F31B3249F01D3241F46894C1
:1010200005C041D0610F711D811D911D119110539B
:101030001A30B8F33EF490958095709561957F4F86
:101040008F4F9F4F1F910895FB01DC0102C001905B
:101050000D9241505040D8F70895FC0181918617B8
:1010600021F08823D9F7992708953197CF01089562
:10107000FB01DC0101900D920020E1F7089545325B
:10108000510518F4423008F004C0FB011082CB0176
:101090000895BB274A3031F4992322F4BDE290959C
:1010A00081959F4F16C0592F482F372F262F660F37
:1010B000771F881F991F660F771F881F991F620F60
:1010C000731F841F951F660F771F881F991F089530
:1010D000BB27FB015527AA27880F991FAA1FA41712
:1010E00010F0A41B83955051B9F7A05DAA3308F006
:1010F000A95DA193009779F7B111B1931192CB013A
:1011000000C0DC01FC01672F71917723E1F7329772
:1011100004C07C916D9370836291AE17BF07C8F3D2
:1011200008952F923F924F925F926F927F928F928B
:101130009F92AF92BF92CF92DF92EF92FF920F9366
:101140001F93CF93DF93CDB7DEB7CA1BDB0B0FB670
:10115000F894DEBF0FBECDBF09942A88398848882D
:101160005F846E847D848C849B84AA84B984C884C3
:10117000DF80EE80FD800C811B81AA81B981CE0FBA
:10118000D11D0FB6F894DEBF0FBECDBFED0108959F
:1011900010E0CCE6D0E003C0FE0142DD2296CE3660
:0811A000D107D1F7F894FFCF4D
:1011A8000000E10180002C00783D0009793D000035
:1011B800000000EC01530371018A017C01CB01009E
:00000001FF
