:1000000036C000005AC0000058C0000056C00000B2
:1000100054C0000052C0000050C000004EC000009C
:100020004CC000004AC0000048C0000046C00000AC
:1000300044C0000042C0000040C000003EC00000BC
:100040006DC500003AC00000B2C20000E2C200006C
:1000500034C0000032C0000030C000002EC00000DC
:100060002CC000002AC00000760137037B01112458
:100070001FBECFEFD8E0DEBFCDBF11E0A0E0B1E002
:10008000E6EFF1E102C005900D92AE32B107D9F76B
:1000900021E0AEE2B1E001C01D92AF3EB207E1F750
:1000A00010E0CCE6D0E003C02297FE01E0D5C836D0
:1000B000D107D1F729D50C94EF08A2CF26E040E86C
:1000C00055E260E070E085E491E011D260E870E014
:1000D0008FE291E09CC3CF92DF92EF92FF920F9359
:1000E0001F93CF93DF93CDB7DEB72C970FB6F8945D
:1000F000DEBF0FBECDBF8C016BE5B5D47C016DE5D5
:10010000C801B1D4F7FC1FC097FD1DC0A7014F5F08
:100110005F4F9C01B801CE010796A8D4BE01695F6C
:100120007F4FCE010196D6D366E071E0CE010196F5
:100130005BD4BC01C801B9D3CE0101963AD3CE013C
:10014000079637D304C067E071E0C801CBD385E3DD
:10015000E82E81E0F82EF80184819581892B41F108
:100160006CE2C80180D46C019C0140E050E0B80111
:10017000CE0101967BD4CE010196BBD4F7016193E9
:1001800071937F01CE01019614D3F801248135814A
:10019000A6014F5F5F4FB801CE01019667D4BE0143
:1001A0006F5F7F4FC80181D3CE01019602D3D3CFB9
:1001B0002C960FB6F894DEBF0FBECDBFDF91CF9166
:1001C0001F910F91FF90EF90DF90CF900895EF92E5
:1001D000FF920F931F93CF93DF93CDB7DEB72C978A
:1001E0000FB6F894DEBF0FBECDBF68E071E0CE0160
:1001F000079646D30091370110913801E090350100
:10020000F0903601BE01695F7F4FCE01019662D347
:10021000B701CE01019600D46BE071E0E5D3B801DF
:10022000FBD3BC01CE01079640D3CE010196C1D2CB
:1002300000913B0110913C01E0903901F0903A01AE
:10024000BE01695F7F4FCE01019644D36FE071E03C
:10025000CE010196C9D3B701DFD366E171E0C4D303
:10026000B801DAD3BC01CE0107961FD3CE010196A7
:10027000A0D2BE01695F7F4F85E491E08AD2CE01B2
:10028000079697D22C960FB6F894DEBF0FBECDBF5F
:10029000DF91CF911F910F91FF90EF900895CF9331
:1002A000DF9300D000D000D0CDB7DEB780912E0113
:1002B000882399F06FE271E0CE0101960BD3CE0155
:1002C000019609DFCE01019674D281DF67E071E00B
:1002D0008FE291E007D310922E0126960FB6F89484
:1002E000DEBF0FBECDBFDF91CF91089567E071E013
:1002F0008FE291E0C5C28FE291E05BC2CF93DF93C2
:10030000D1E085E491E014D0892B79F085E491E087
:1003100028D0C82F682F8FE291E024D3CA3011F083
:10032000CD3579F7D0932E01ECCFDF91CF910895A1
:10033000FC01818D228D90E0805C9F4F821B910992
:100340008F7399270895FC01918D828D981731F054
:10035000828DE80FF11D858D90E008958FEF9FEF5E
:100360000895FC01918D828D981761F0828DDF01D7
:10037000A80FB11D5D968C91928D9F5F9F73928F98
:1003800090E008958FEF9FEF08958EE293E0892B20
:1003900039F08EE791E0892B19F060D18111AECF51
:1003A0000895FC01848DDF01A80FB11DA35ABF4F32
:1003B0002C91848D90E001968F739927848FA68964
:1003C000B7892C93A089B1898C9180648C93938D8B
:1003D000848D981306C00288F389E02D80818F7D7B
:1003E00080830895CF93DF93EC01888D8823C1F03B
:1003F000EA89FB89808185FD05C0A889B9898C912E
:1004000086FD0EC00FB607FCF5CF808185FFF2CFC9
:10041000A889B9898C9185FFEDCFCE01C2DFE8CFE5
:10042000DF91CF910895CF92DF92FF920F931F93A8
:10043000CF93DF931F92CDB7DEB76C01DC015B96E3
:100440009C915B975C968C915C97981307C0509633
:10045000ED91FC915197808185FD31C0F601038DAE
:1004600010E00F5F1F4F0F731127F02EF601848DE0
:10047000F81210C00FB607FCF9CFD6015096ED91D7
:10048000FC915197808185FFF1CFC601698389DF97
:100490006981ECCF838DE80FF11DE35AFF4F608334
:1004A000D6015B960C935B975296ED91FC91539716
:1004B00080818062808381E058968C930DC0D60144
:1004C0005696ED91FC91579760835096ED91FC9173
:1004D000519780818064808381E090E00F90DF916C
:1004E000CF911F910F91FF90DF90CF900895BF9211
:1004F000CF92DF92EF92FF92CF93DF93EC016A01EC
:100500007B01B22EE889F98982E08083411581EE72
:1005100058076105710599F060E079E08DE390E09E
:10052000A701960180D321503109410951095695FF
:10053000479537952795211580E1380790F0E88990
:10054000F989108260E874E88EE190E0A7019601D5
:100550006AD321503109410951095695479537957C
:100560002795EC85FD853083EE85FF852083188EE9
:10057000EC89FD89B082EA89FB8980818061808372
:10058000EA89FB89808188608083EA89FB89808190
:1005900080688083EA89FB8980818F7D8083DF91F9
:1005A000CF91FF90EF90DF90CF90BF9008951F9272
:1005B0000F920FB60F9211242F938F939F93EF9367
:1005C000FF93E0915501F09156018081E0915B012C
:1005D000F0915C0182FD12C0908180915E018F5F7D
:1005E0008F7320915F01821751F0E0915E01F0E07E
:1005F000EB5BFE4F958F80935E0101C08081FF9180
:10060000EF919F918F912F910F900FBE0F901F90A0
:1006100018951F920F920FB60F9211242F933F93AC
:100620004F935F936F937F938F939F93AF93BF93FA
:10063000EF93FF9385E491E0B4DEFF91EF91BF91DA
:10064000AF919F918F917F916F915F914F913F916A
:100650002F910F900FBE0F901F90189585E491E099
:1006600067DE21E0892B09F420E0822F08951092A3
:1006700048011092470188EE93E0A0E0B0E080933B
:10068000490190934A01A0934B01B0934C0182E23F
:1006900091E0909346018093450185EC90E0909322
:1006A00052018093510184EC90E090935401809327
:1006B000530180EC90E0909356018093550181ECBA
:1006C00090E0909358018093570182EC90E09093D2
:1006D0005A018093590186EC90E090935C018093DD
:1006E0005B0110925E0110925F0110926001109206
:1006F00061010895CF92DF92EF92FF920F931F93C3
:10070000CF93DF936C017A01EB01E60EF71E00E058
:1007100010E0CE15DF0561F06991D601ED91FC91F5
:100720000190F081E02DC6010995080F191FF1CF46
:10073000C801DF91CF911F910F91FF90EF90DF9053
:10074000CF900895DC01ED91FC91DB0114964D9161
:100750005C9115976D917C910280F381E02D099455
:10076000DC01ED91FC910190F081E02D09940F9353
:100770001F93CF93DF93EC016DE0F2DF8C016AE011
:10078000CE01EEDF800F911FDF91CF911F910F916E
:1007900008950F931F93CF93DF93EC01D3DF8C0168
:1007A000CE01E5DF800F911FDF91CF911F910F9157
:1007B0000895FC0180819181F6C2CF93DF93EC0113
:1007C00088819981009709F0EED2198218821D82E2
:1007D0001C821B821A82DF91CF9108950F931F9381
:1007E000CF93DF93EC018B016F5F7F4F88819981FD
:1007F00069D3009731F0998388831B830A8381E052
:1008000001C080E0DF91CF911F910F910895CF93A8
:10081000DF93EC0188819981892B29F08A819B8162
:100820008617970758F4CE01D9DF882341F08C81D1
:100830009D81892B19F4E881F981108281E0DF9193
:10084000CF910895EF92FF920F931F93CF93DF9371
:10085000EC017B018A01BA01DADF811103C0CE010C
:10086000ACDF06C01D830C83B7018881998127D432
:10087000CE01DF91CF911F910F91FF90EF900895DE
:10088000FC0111821082138212821582148261157A
:10089000710551F0FB0101900020E9F7AF014150D3
:1008A0005109461B570BCECF0895CF93DF93EC0130
:1008B000FB018617970751F0608171816115710501
:1008C00021F044815581BEDF01C077DFCE01DF9189
:1008D000CF910895FC011182108213821282158239
:1008E0001482E3CFCF93DF93EC016115710559F0CA
:1008F000FB0101900020E9F7AF0141505109461B6F
:10090000570BA0DF01C059DFCE01DF91CF910895D1
:10091000EF92FF920F931F93CF93DF93EC017B0134
:100920000C811D816115710511F480E014C0411521
:10093000510581F0040F151FB80169DF8823A9F361
:10094000288139818C819D81B701820F931FB7D394
:100950001D830C8381E0DF91CF911F910F91FF9058
:10096000EF900895CF93DF9300D0CDB7DEB76983C2
:100970001A8241E050E0BE016F5F7F4FC9DF0F90E8
:100980000F90DF91CF910895EF92FF920F931F93F5
:10099000CF93DF93CDB7DEB728970FB6F894DEBFBD
:1009A0000FBECDBF7C01CB014AE050E08E010F5F4E
:1009B0001F4FB8018BD3F80101900020E9F7AF0178
:1009C00041505109401B510BB801C701A1DF2896C6
:1009D0000FB6F894DEBF0FBECDBFDF91CF911F9150
:1009E0000F91FF90EF900895CF93DF93EC01611585
:1009F000710561F0FB0101900020E9F7AF01415062
:100A00005109461B570B84DF811102C0CE01D5DE90
:100A1000CE01DF91CF910895CF93DF93EC01B4DF46
:100A2000811102C0CE01C9DECE01DF91CF910895C0
:100A3000CF93DF93FC01848195814817590770F4A7
:100A4000C081D181772767FD7095CE01840F951FF6
:100A50002BD3009719F08C1B9D0B02C08FEF9FEFDB
:100A6000DF91CF91089540E050E0E2CFBF92CF9266
:100A7000DF92EF92FF920F931F93CF93DF936C015E
:100A80007B01EA0189012417350720F48D2FE90144
:100A9000042F182F67E071E0C601F2DED70114962B
:100AA0008D919C911597C817D907C0F480179107AD
:100AB00008F48C01D701ED91FC911197E00FF11F23
:100AC000B08010826D917C916C0F7D1FC6010ADF92
:100AD000D701ED91FC91E00FF11FB082C601DF91CB
:100AE000CF911F910F91FF90EF90DF90CF90BF902B
:100AF0000895FC0180819181009709F0A6C260E011
:100B000070E0CB010895089553D0FDDFD7DAC5EC2E
:100B1000D1E0C5DB2097E9F338DCFBCF1F920F92C1
:100B20000FB60F9211242F933F938F939F93AF9300
:100B3000BF938091E3019091E401A091E501B09110
:100B4000E6013091E20123E0230F2D3720F40196D6
:100B5000A11DB11D05C026E8230F0296A11DB11DE0
:100B60002093E2018093E3019093E401A093E501D7
:100B7000B093E6018091E7019091E801A091E9012D
:100B8000B091EA010196A11DB11D8093E7019093F8
:100B9000E801A093E901B093EA01BF91AF919F9161
:100BA0008F913F912F910F900FBE0F901F9018952E
:100BB000789484B5826084BD84B5816084BD85B538
:100BC000826085BD85B5816085BDEEE6F0E08081FF
:100BD00081608083E1E8F0E0108280818260808320
:100BE000808181608083E0E8F0E0808181608083A3
:100BF000E1EBF0E0808184608083E0EBF0E08081D5
:100C000081608083EAE7F0E0808184608083808176
:100C1000826080838081816080838081806880831E
:100C20001092C1000895A1E21A2EAA1BBB1BFD0160
:100C30000DC0AA1FBB1FEE1FFF1FA217B307E407BB
:100C4000F50720F0A21BB30BE40BF50B661F771F13
:100C5000881F991F1A9469F76095709580959095F3
:100C60009B01AC01BD01CF010895EE0FFF1F059060
:100C7000F491E02D0994CF93DF938230910510F425
:100C800082E090E0E091ED01F091EE0120E030E0B3
:100C9000A0E0B0E0309739F1408151814817590701
:100CA000B8F04817590771F482819381109729F0A1
:100CB00013969C938E9312972CC09093EE01809381
:100CC000ED0127C02115310531F04217530718F007
:100CD000A901DB0101C0EF019A01BD01DF01028022
:100CE000F381E02DD7CF21153105F9F0281B390B01
:100CF0002430310580F48A819B816115710521F0D2
:100D0000FB019383828304C09093EE018093ED01F5
:100D1000FE01329644C0FE01E20FF31F81939193CE
:100D200022503109398328833AC02091EB01309158
:100D3000EC01232B41F42091020130910301309307
:100D4000EC012093EB01209100013091010121156C
:100D5000310541F42DB73EB7409104015091050192
:100D6000241B350BE091EB01F091EC01E217F30746
:100D7000A0F42E1B3F0B2817390778F0AC014E5F0B
:100D80005F4F2417350748F04E0F5F1F5093EC015B
:100D90004093EB018193919302C0E0E0F0E0CF013A
:100DA000DF91CF910895CF93DF93009709F487C027
:100DB000FC01329713821282C091ED01D091EE01B5
:100DC000209781F420813181280F391F8091EB0118
:100DD0009091EC018217930779F5F093EC01E09381
:100DE000EB016DC0DE0120E030E0AE17BF0750F42C
:100DF00012964D915C9113979D014115510509F192
:100E0000DA01F3CFB383A28340815181840F951F10
:100E10008A179B0771F48D919C911197840F951FF0
:100E200002969183808312968D919C911397938360
:100E300082832115310529F4F093EE01E093ED0151
:100E40003EC0D9011396FC93EE9312974D915D919C
:100E5000A40FB51FEA17FB0779F480819181840FF5
:100E6000951F0296D90111969C938E93828193814E
:100E700013969C938E931297E0E0F0E08A819B8119
:100E8000009719F0FE01EC01F9CFCE0102962881FE
:100E90003981820F931F2091EB013091EC012817CB
:100EA000390769F4309729F41092EE011092ED01A0
:100EB00002C013821282D093EC01C093EB01DF9148
:100EC000CF910895A0E0B0E0E7E6F7E055C1EC016E
:100ED000CB01209711F4CFDEB4C0FE01E60FF71F5F
:100EE0009E0122503109E217F30708F4A8C0D90186
:100EF0000D911C91119706171707B0F005301105D9
:100F000008F49BC0A801445051094617570708F43C
:100F100094C002501109061B170B019311936D9396
:100F20007C93CF0140DF89C05B01A01AB10A4E015A
:100F3000800E911EA091ED01B091EE01612C712CFB
:100F400060E070E0109709F449C0A815B905C9F52B
:100F5000ED90FC901197670142E0C40ED11CCA14B9
:100F6000DB0478F147018A189B08640142E0C40E53
:100F7000D11C1296BC9012971396AC91B5E0CB168B
:100F8000D10440F0B282A38391828082D9018D93F3
:100F90009C9309C00E5F1F4F0E0D1F1DF901118399
:100FA0000083EB2DFA2F6115710531F0DB011396EB
:100FB000FC93EE93129741C0F093EE01E093ED01A4
:100FC0003CC06D917C9111976616770608F43B0141
:100FD000BD0112960D90BC91A02DB4CF6091EB0194
:100FE0007091EC0168157905E9F468167906D0F47A
:100FF00040910001509101014115510541F44DB757
:101000005EB76091040170910501461B570BE41710
:10101000F507A8F4F093EC01E093EB01F90191835B
:1010200080830BC028DE7C01009749F0A801BE0137
:1010300032D0CE01B8DEC70104C0CE0102C080E0CC
:1010400090E0CDB7DEB7EEE0B3C01F93FC01992767
:101050008827BC01E89411911032E9F3193010F09F
:101060001E30C8F31B3249F01D3241F4689405C0AC
:1010700041D0610F711D811D911D119110531A30C6
:10108000B8F33EF490958095709561957F4F8F4FA2
:101090009F4F1F910895FB01DC0102C001900D924A
:1010A00041505040D8F70895FC018191861721F0F6
:1010B0008823D9F7992708953197CF010895FB0127
:1010C000DC0101900D920020E1F7089545325105B1
:1010D00018F4423008F004C0FB011082CB010895DF
:1010E000BB274A3031F4992322F4BDE290958195D3
:1010F0009F4F16C0592F482F372F262F660F771F67
:10110000881F991F660F771F881F991F620F731F13
:10111000841F951F660F771F881F991F0895BB278F
:10112000FB015527AA27880F991FAA1FA41710F0A3
:10113000A41B83955051B9F7A05DAA3308F0A95DAF
:10114000A193009779F7B111B1931192CB0100C02F
:10115000DC01FC01672F71917723E1F7329704C01E
:101160007C916D9370836291AE17BF07C8F30895A9
:101170002F923F924F925F926F927F928F929F92A7
:10118000AF92BF92CF92DF92EF92FF920F931F9395
:10119000CF93DF93CDB7DEB7CA1BDB0B0FB6F89446
:1011A000DEBF0FBECDBF09942A88398848885F8486
:1011B0006E847D848C849B84AA84B984C884DF80F7
:1011C000EE80FD800C811B81AA81B981CE0FD11DDB
:1011D0000FB6F894DEBF0FBECDBFED01089510E04D
:1011E000CCE6D0E003C0FE0142DD2296CE36D10728
:0611F000D1F7F894FFCFD7
:1011F6000000EF0180002C00783D0009793D0009D0
:1012060073697A653D000966616365733D00000098
:0E121600000013027A039801B101A301F20156
:00000001FF
