:1000000059C000007DC000007BC0000079C0000026
:1000100077C0000075C0000073C0000071C0000010
:100020006FC000006DC000006BC000005DC5000027
:1000300067C0000065C0000063C0000061C0000030
:10004000CEC400005DC0000086C20000B6C2000041
:1000500057C0000055C0000053C0000051C0000050
:100060004FC000004DC00000000000080002010069
:100070000003040700000000000000000102040863
:100080001020408001020408102001020408102002
:10009000040404040404040402020202020203032E
:1000A0000303030300000000250028002B00440187
:1000B0000B034F0111241FBECFEFD8E0DEBFCDBF31
:1000C00011E0A0E0B1E0E4EEF4E102C005900D9291
:1000D000A233B107D9F722E0A2E3B1E001C01D923B
:1000E000A032B207E1F710E0C2EBD0E003C02297E4
:1000F000FE0162D7CE3AD107D1F767D40C94660AD5
:100100007FCF60E870E08AE391E01ED381E08093C6
:1001100038010895CF92DF92EF92FF920F931F93D1
:10012000CF93DF93CDB7DEB72C970FB6F894DEBF31
:100130000FBECDBF8C016BE5F7D37C016DE5C80127
:10014000F3D3F7FC1FC097FD1DC0A7014F5F5F4FA2
:100150009C01B801CE010796EAD3BE01695F7F4FCB
:10016000CE01019654D36AE071E0CE010196A9D385
:10017000BC01C80137D3CE010196B8D2CE01079693
:10018000B5D204C06BE071E0C80149D380E4E82E29
:1001900081E0F82EF80184819581892B41F16CE290
:1001A000C801C2D36C019C0140E050E0B801CE010F
:1001B0000196BDD3CE010196FDD3F70161937193F2
:1001C0007F01CE01019692D2F80124813581A601EA
:1001D0004F5F5F4FB801CE010196A9D3BE016F5F9B
:1001E0007F4FC801FFD2CE01019680D2D3CF2C968B
:1001F0000FB6F894DEBF0FBECDBFDF91CF911F9138
:100200000F91FF90EF90DF90CF900895CF93DF9301
:1002100000D000D000D0CDB7DEB780913801811179
:1002200001C06FDF80913901882391F06AE371E0AA
:10023000CE010196ECD2CE0101966CDFCE01019683
:1002400055D26BE071E08AE391E0E9D21092390176
:1002500026960FB6F894DEBF0FBECDBFDF91CF91CB
:10026000089526E040E855E260E070E080E591E026
:1002700012C16AE070E085E391E03FD5C7DF6AE52F
:1002800070E085E391E039C56BE071E08AE391E0CD
:1002900094D285E391E0E2D482E391E0DFC48AE383
:1002A00091E024C2CF93DF93D1E080E591E014D0B8
:1002B000892B79F080E591E028D0C82F682F8AE358
:1002C00091E0EDD2CA3011F0CD3579F7D0933901F4
:1002D000ECCFDF91CF910895FC01818D228D90E0CC
:1002E000805C9F4F821B91098F7399270895FC01B1
:1002F000918D828D981731F0828DE80FF11D858DDB
:1003000090E008958FEF9FEF0895FC01918D828D0D
:10031000981761F0828DDF01A80FB11D5D968C9159
:10032000928D9F5F9F73928F90E008958FEF9FEF64
:10033000089582E093E0892B39F082E591E0892BE2
:1003400019F060D18111AECF0895FC01848DDF01D9
:10035000A80FB11DA35ABF4F2C91848D90E0019638
:100360008F739927848FA689B7892C93A089B18927
:100370008C9180648C93938D848D981306C0028831
:10038000F389E02D80818F7D80830895CF93DF9363
:10039000EC01888D8823C1F0EA89FB89808185FD85
:1003A00005C0A889B9898C9186FD0EC00FB607FCDF
:1003B000F5CF808185FFF2CFA889B9898C9185FF1F
:1003C000EDCFCE01C2DFE8CFDF91CF910895CF927C
:1003D000DF92FF920F931F93CF93DF931F92CDB7BE
:1003E000DEB76C01DC015B969C915B975C968C910F
:1003F0005C97981307C05096ED91FC9151978081BE
:1004000085FD31C0F601038D10E00F5F1F4F0F73A4
:100410001127F02EF601848DF81210C00FB607FCDC
:10042000F9CFD6015096ED91FC915197808185FFCF
:10043000F1CFC601698389DF6981ECCF838DE80F35
:10044000F11DE35AFF4F6083D6015B960C935B97D7
:100450005296ED91FC91539780818062808381E078
:1004600058968C930DC0D6015696ED91FC915797F6
:1004700060835096ED91FC915197808180648083D8
:1004800081E090E00F90DF91CF911F910F91FF904D
:10049000DF90CF900895BF92CF92DF92EF92FF92BC
:1004A000CF93DF93EC016A017B01B22EE889F989D1
:1004B00082E08083411581EE58076105710599F04E
:1004C00060E079E08DE390E0A70196012BD5215003
:1004D00031094109510956954795379527952115B9
:1004E00080E1380790F0E889F989108260E874E8C3
:1004F0008EE190E0A701960115D5215031094109FF
:1005000051095695479537952795EC85FD8530839C
:10051000EE85FF852083188EEC89FD89B082EA89FB
:10052000FB89808180618083EA89FB898081886082
:100530008083EA89FB89808180688083EA89FB89DE
:1005400080818F7D8083DF91CF91FF90EF90DF904E
:10055000CF90BF9008951F920F920FB60F92112463
:100560002F938F939F93EF93FF93E0916001F0910E
:1005700061018081E0916601F091670182FD12C006
:100580009081809169018F5F8F7320916A0182173A
:1005900051F0E0916901F0E0E05BFE4F958F8093B0
:1005A000690101C08081FF91EF919F918F912F91FF
:1005B0000F900FBE0F901F9018951F920F920FB6BD
:1005C0000F9211242F933F934F935F936F937F93D9
:1005D0008F939F93AF93BF93EF93FF9380E591E049
:1005E000B4DEFF91EF91BF91AF919F918F917F9179
:1005F0006F915F914F913F912F910F900FBE0F9090
:100600001F90189580E591E067DE21E0892B09F4C1
:1006100020E0822F0895109253011092520188EE2B
:1006200093E0A0E0B0E08093540190935501A09333
:100630005601B093570186E291E090935101809367
:10064000500185EC90E090935D0180935C0184EC17
:1006500090E090935F0180935E0180EC90E0909336
:1006600061018093600181EC90E09093630180933D
:10067000620182EC90E0909365018093640186ECC6
:1006800090E0909367018093660110926901109247
:100690006A0110926B0110926C010895CF92DF9263
:1006A000EF92FF920F931F93CF93DF936C017A0128
:1006B000EB01E60EF71E00E010E0CE15DF0561F05D
:1006C0006991D601ED91FC910190F081E02DC60178
:1006D0000995080F191FF1CFC801DF91CF911F9124
:1006E0000F91FF90EF90DF90CF900895FC018081F3
:1006F00091810DC5CF93DF93EC018881998100979B
:1007000009F005D5198218821D821C821B821A826B
:10071000DF91CF9108950F931F93CF93DF93EC0157
:100720008B016F5F7F4F8881998180D5009731F071
:10073000998388831B830A8381E001C080E0DF9175
:10074000CF911F910F910895CF93DF93EC01888192
:100750009981892B29F08A819B818617970758F404
:10076000CE01D9DF882341F08C819D81892B19F43A
:10077000E881F981108281E0DF91CF910895EF92B5
:10078000FF920F931F93CF93DF93EC017B018A01BC
:10079000BA01DADF811103C0CE01ACDF06C01D83D0
:1007A0000C83B701888199813ED6CE01DF91CF912C
:1007B0001F910F91FF90EF900895FC01118210821C
:1007C00013821282158214826115710551F0FB01AA
:1007D00001900020E9F7AF0141505109461B570B2A
:1007E000CECF0895CF93DF93EC01FB0186179707D7
:1007F00051F0608171816115710521F0448155814D
:10080000BEDF01C077DFCE01DF91CF910895FC01FB
:10081000118210821382128215821482E3CFCF9349
:10082000DF93EC016115710559F0FB010190002087
:10083000E9F7AF0141505109461B570BA0DF01C03A
:1008400059DFCE01DF91CF910895EF92FF920F9380
:100850001F93CF93DF93EC017B010C811D81611508
:10086000710511F480E014C04115510581F0040FA9
:10087000151FB80169DF8823A9F3288139818C818C
:100880009D81B701820F931FCED51D830C8381E01C
:10089000DF91CF911F910F91FF90EF900895CF932B
:1008A000DF9300D0CDB7DEB769831A8241E050E014
:1008B000BE016F5F7F4FC9DF0F900F90DF91CF9127
:1008C0000895CF93DF93EC016115710561F0FB0191
:1008D00001900020E9F7AF0141505109461B570B29
:1008E000B4DF811102C0CE0105DFCE01DF91CF91CF
:1008F0000895CF93DF93FC018481958148175907B0
:1009000070F4C081D181772767FD7095CE01840F87
:10091000951F7ED5009719F08C1B9D0B02C08FEFA1
:100920009FEFDF91CF91089540E050E0E2CFBF927A
:10093000CF92DF92EF92FF920F931F93CF93DF93AB
:100940006C017B01EA0189012417350720F48D2F02
:10095000E901042F182F6BE071E0C6012EDFD701EB
:1009600014968D919C911597C817D907C0F48017DC
:10097000910708F48C01D701ED91FC911197E00FDC
:10098000F11FB08010826D917C916C0F7D1FC601AC
:1009900046DFD701ED91FC91E00FF11FB082C60157
:1009A000DF91CF911F910F91FF90EF90DF90CF904B
:1009B000BF900895FC0180819181009709F0F9C4EE
:1009C00060E070E0CB010895089553D0FDDF49DC6D
:1009D000C9E9D1E04EDC2097E9F3ABDCFBCF1F92F5
:1009E0000F920FB60F9211242F933F938F939F93E3
:1009F000AF93BF938091EE019091EF01A091F00130
:100A0000B091F1013091ED0123E0230F2D3720F457
:100A10000196A11DB11D05C026E8230F0296A11D58
:100A2000B11D2093ED018093EE019093EF01A0930F
:100A3000F001B093F1018091F2019091F301A09146
:100A4000F401B091F5010196A11DB11D8093F20151
:100A50009093F301A093F401B093F501BF91AF918E
:100A60009F918F913F912F910F900FBE0F901F90EC
:100A70001895789484B5826084BD84B5816084BD06
:100A800085B5826085BD85B5816085BDEEE6F0E007
:100A9000808181608083E1E8F0E010828081826063
:100AA0008083808181608083E0E8F0E080818160E4
:100AB0008083E1EBF0E0808184608083E0EBF0E014
:100AC000808181608083EAE7F0E0808184608083B8
:100AD0008081826080838081816080838081806862
:100AE00080831092C10008951F920F920FB60F924B
:100AF00011242F933F934F935F936F937F938F9323
:100B00009F93AF93BF93EF93FF938091F70187FF7C
:100B100005C010928500109284001AC02091F70140
:100B2000332727FD30958091F60190E0281739078B
:100B30007CF48091F701992787FD9095FC01EE0FD9
:100B4000FF1FE80FF91FE850FE4F808186FD15C09A
:100B50008091F7018F5F8093F7012091F701332790
:100B600027FD30958091F60190E028173907B4F4FD
:100B70008091F7018C3054F111C08091F7019927D1
:100B800087FD9095FC01EE0FFF1FE80FF91FE8505D
:100B9000FE4F808160E08F7381D1DACF8091840035
:100BA00090918500049680349C4918F480E49CE977
:100BB00005C08091840090918500049690938900EF
:100BC000809388008FEF8093F70137C020918400D5
:100BD000309185008091F701992787FD9095FC0160
:100BE000EE0FFF1FE80FF91FE850FE4F8181928141
:100BF000820F931F90938900809388008091F70162
:100C0000992787FD9095FC01EE0FFF1FE80FF91F54
:100C1000E850FE4F808186FF10C08091F701992730
:100C200087FD9095FC01EE0FFF1FE80FF91FE850BC
:100C3000FE4F808161E08F7331D1FF91EF91BF91C1
:100C4000AF919F918F917F916F915F914F913F9164
:100C50002F910F900FBE0F901F9018952091F601C5
:100C60002C30A0F431E0320F3093F601FC012083E8
:100C7000822F90E0FC01EE0FFF1FE80FF91FE850F4
:100C8000FE4F88EB9BE09283818308952FEFFC0158
:100C900020830895FC0180818C3070F5918128E8D3
:100CA00030E0291B310997FD3395220F331F220FA6
:100CB000331F621773077CF0928128E532E0291B0D
:100CC000310997FD3395220F331F220F331F62170F
:100CD00073070CF49B0122503109220F331F4FB7C9
:100CE000F89490E0FC01EE0FFF1FE80FF91FE850A9
:100CF000FE4F328321834FBF08954F925F926F92D0
:100D00007F92AF92BF92CF92DF92EF92FF920F93BA
:100D10001F93CF93DF93EC01603282E078070CF0F1
:100D20003FC077FD06C0653B71052CF064EB70E0B9
:100D300002C060E070E0898128E830E0281B3109BA
:100D400087FD3395220F331F220F331F5901CC2407
:100D5000B7FCC094DC2C882777FD8095982F2A81DA
:100D600048E552E0421B510927FD5395440F551F9A
:100D7000440F551F2A01662457FC6094762C7F92FD
:100D80006F925F924F9214EBE12EF12C00E010E095
:100D900020E030E0A90114D00F900F900F900F9039
:100DA000CE01DF91CF911F910F91FF90EF90DF90D7
:100DB000CF90BF90AF907F906F905F904F906ACF31
:100DC0004F925F926F927F92AF92BF92CF92DF92DB
:100DD000EF92FF920F931F93CF93DF93CDB7DEB7C0
:100DE00029013A01621B730B840B950B29893A89FF
:100DF0004B895C892A193B094C095D09298B3A8B7F
:100E00004B8B5C8B9B01AC0169897A898B899C89AE
:100E10007AD0E418F50806091709A8019701A4D0AB
:100E20002A0D3B1D4C1D5D1DCA01B901DF91CF91FB
:100E30001F910F91FF90EF90DF90CF90BF90AF90F8
:100E40007F906F905F904F900895833081F028F4E9
:100E5000813099F08230A1F008958730A9F0883070
:100E6000B9F08430D1F4809180008F7D03C08091EF
:100E700080008F7780938000089584B58F7702C0BB
:100E800084B58F7D84BD08958091B0008F7703C0B5
:100E90008091B0008F7D8093B00008950F931F93D1
:100EA000CF93DF931F92CDB7DEB7282F30E0F90143
:100EB000E859FF4F8491F901E458FF4F1491F9016B
:100EC000E057FF4F04910023C1F0882319F0698394
:100ED000BCDF6981E02FF0E0EE0FFF1FEC55FF4F04
:100EE000A591B4919FB7F8948C91611103C01095AE
:100EF000812301C0812B8C939FBF0F90DF91CF91F5
:100F00001F910F910895DB018F939F9349D0BF915B
:100F1000AF91A29F800D911DA39F900DB29F900D48
:100F200011240895A1E21A2EAA1BBB1BFD010DC0BE
:100F3000AA1FBB1FEE1FFF1FA217B307E407F50789
:100F400020F0A21BB30BE40BF50B661F771F881F65
:100F5000991F1A9469F760957095809590959B01FB
:100F6000AC01BD01CF010895052E97FB16F4009446
:100F70000FD057FD05D0D6DF07FC02D046F408C0DD
:100F800050954095309521953F4F4F4F5F4F0895B5
:100F900090958095709561957F4F8F4F9F4F0895E5
:100FA0000FD0A59F900DB49F900DA49F800D911D13
:100FB00011240895EE0FFF1F0590F491E02D099480
:100FC000A29FB001B39FC001A39F700D811D11248A
:100FD000911DB29F700D811D1124911D0895CF9315
:100FE000DF938230910510F482E090E0E0911E02E0
:100FF000F0911F0220E030E0A0E0B0E0309739F13E
:101000004081518148175907B8F04817590771F4C2
:1010100082819381109729F013969C938E93129757
:101020002CC090931F0280931E0227C0211531050A
:1010300031F04217530718F0A901DB0101C0EF019D
:101040009A01BD01DF010280F381E02DD7CF211588
:101050003105F9F0281B390B2430310580F48A81E1
:101060009B816115710521F0FB019383828304C08C
:1010700090931F0280931E02FE01329644C0FE012F
:10108000E20FF31F81939193225031093983288312
:101090003AC020911C0230911D02232B41F4209173
:1010A00002013091030130931D0220931C02209114
:1010B0000001309101012115310541F42DB73EB7F2
:1010C0004091040150910501241B350BE0911C0255
:1010D000F0911D02E217F307A0F42E1B3F0B281717
:1010E000390778F0AC014E5F5F4F2417350748F0A1
:1010F0004E0F5F1F50931D0240931C0281939193EA
:1011000002C0E0E0F0E0CF01DF91CF910895CF93EE
:10111000DF93009709F487C0FC0132971382128293
:10112000C0911E02D0911F02209781F4208131814D
:10113000280F391F80911C0290911D02821793077E
:1011400079F5F0931D02E0931C026DC0DE0120E0F2
:1011500030E0AE17BF0750F412964D915C91139793
:101160009D014115510509F1DA01F3CFB383A28343
:1011700040815181840F951F8A179B0771F48D91CF
:101180009C911197840F951F0296918380831296EC
:101190008D919C911397938382832115310529F4B6
:1011A000F0931F02E0931E023EC0D9011396FC93F8
:1011B000EE9312974D915D91A40FB51FEA17FB07AF
:1011C00079F480819181840F951F0296D90111963F
:1011D0009C938E938281938113969C938E93129706
:1011E000E0E0F0E08A819B81009719F0FE01EC01BC
:1011F000F9CFCE01029628813981820F931F209169
:101200001C0230911D022817390769F4309729F420
:1012100010921F0210921E0202C013821282D093FB
:101220001D02C0931C02DF91CF910895A0E0B0E0B1
:10123000EBE1F9E018C1EC01CB01209711F4CFDE0E
:10124000B4C0FE01E60FF71F9E0122503109E217DC
:10125000F30708F4A8C0D9010D911C911197061746
:101260001707B0F00530110508F49BC0A8014450E1
:1012700051094617570708F494C002501109061B7C
:10128000170B019311936D937C93CF0140DF89C0BD
:101290005B01A01AB10A4E01800E911EA0911E02A0
:1012A000B0911F02612C712C60E070E0109709F47E
:1012B00049C0A815B905C9F5ED90FC9011976701D3
:1012C00042E0C40ED11CCA14DB0478F147018A182D
:1012D0009B08640142E0C40ED11C1296BC90129788
:1012E0001396AC91B5E0CB16D10440F0B282A38343
:1012F00091828082D9018D939C9309C00E5F1F4F0C
:101300000E0D1F1DF90111830083EB2DFA2F6115BE
:10131000710531F0DB011396FC93EE93129741C0F7
:10132000F0931F02E0931E023CC06D917C911197D7
:101330006616770608F43B01BD0112960D90BC912C
:10134000A02DB4CF60911C0270911D026815790523
:10135000E9F468167906D0F440910001509101013A
:101360004115510541F44DB75EB76091040170918C
:101370000501461B570BE417F507A8F4F0931D026F
:10138000E0931C02F901918380830BC028DE7C016D
:10139000009749F0A801BE0132D0CE01B8DEC701E6
:1013A00004C0CE0102C080E090E0CDB7DEB7EEE031
:1013B00076C01F93FC0199278827BC01E8941191FE
:1013C0001032E9F3193010F01E30C8F31B3249F027
:1013D0001D3241F4689405C02DD0610F711D811D2F
:1013E000911D119110531A30B8F33EF490958095E9
:1013F000709561957F4F8F4F9F4F1F910895FB010F
:10140000DC0102C001900D9241505040D8F7089580
:10141000FC018191861721F08823D9F79927089537
:101420003197CF010895FB01DC0101900D9200205E
:10143000E1F70895592F482F372F262F660F771F72
:10144000881F991F660F771F881F991F620F731FD0
:10145000841F951F660F771F881F991F08952F926D
:101460003F924F925F926F927F928F929F92AF9234
:10147000BF92CF92DF92EF92FF920F931F93CF9381
:10148000DF93CDB7DEB7CA1BDB0B0FB6F894DEBF18
:101490000FBECDBF09942A88398848885F846E843E
:1014A0007D848C849B84AA84B984C884DF80EE8088
:1014B000FD800C811B81AA81B981CE0FD11D0FB691
:1014C000F894DEBF0FBECDBFED01089510E0C2EB72
:1014D000D0E003C0FE0170DD2296C43BD107D1F7F6
:0414E000F894FFCFAE
:1014E400000020028000010000002C00783D00096B
:1014F400793D000973697A653D0009666163657326
:101504003D0000000000E7014E036C0185017701F6
:02151400C6010E
:00000001FF
