:1000000074C00000A1C000009FC000009DC000009F
:100010009BC0000099C0000097C0000095C0000080
:1000200093C0000091C000008FC000008DC0000090
:100030008BC0000089C0000087C0000085C00000A0
:1000400083C0000081C000007FC000007DC00000B0
:100050007BC0000079C0000077C00000B9C6000076
:1000600073C000002BC300005FC300006DC0000020
:100070006BC0000069C0000067C0000065C00000E0
:1000800063C0000061C000005FC000005DC00000F0
:100090005BC0000059C0000057C0000055C0000000
:1000A00053C0000051C000004FC000004DC0000010
:1000B0004BC0000049C0000047C0000045C0000020
:1000C00043C0000041C000003FC000003DC0000030
:1000D0003BC0000039C0000037C0000035C0000040
:1000E00033C00000C501C603D30111241FBECFEFEA
:1000F000D1E2DEBFCDBF00E00CBF12E0A0E0B2E075
:10010000E2EEF4E100E00BBF02C007900D92AE32C8
:10011000B107D9F722E0AEE2B2E001C01D92A53FDF
:10012000B207E1F710E0C8EED0E000E005C022978A
:100130000109FE010BBF22D7C43ED10780E00807AA
:10014000B1F73CD60C94600A5BCF26E040E855E25C
:1001500060E070E08BE492E051D260E870E085E30B
:1001600092E0AEC4CF92DF92EF92FF920F931F9373
:10017000CF93DF93CDB7DEB72C970FB6F894DEBFE1
:100180000FBECDBF8C016BE5C8D57C016DE5C80104
:10019000C4D5F7FC1FC097FD1DC0A7014F5F5F4F7F
:1001A0009C01B801CE010796BBD5BE01695F7F4FA8
:1001B000CE010196E8D466E072E0CE0101966ED5DC
:1001C000BC01C801CBD4CE0101964CD4CE01079618
:1001D00049D404C067E072E0C801DDD48BE3E82EA7
:1001E00082E0F82EF80184819581892B41F16CE23F
:1001F000C80193D56C019C0140E050E0B801CE01EC
:1002000001968ED5CE010196CED5F70161937193FB
:100210007F01CE01019626D4F80124813581A60103
:100220004F5F5F4FB801CE0101967AD5BE016F5F77
:100230007F4FC80193D4CE01019614D4D3CF2C960E
:100240000FB6F894DEBF0FBECDBFDF91CF911F91E7
:100250000F91FF90EF90DF90CF900895EF92FF9273
:100260000F931F93CF93DF93CDB7DEB72C970FB6C5
:10027000F894DEBF0FBECDBF68E072E0CE010796F6
:1002800058D400913D0210913E02E0903B02F09064
:100290003C02BE01695F7F4FCE01019674D4B70165
:1002A000CE01019613D56BE072E0F8D4B8010ED5FB
:1002B000BC01CE01079652D4CE010196D3D3009152
:1002C000410210914202E0903F02F0904002BE01D4
:1002D000695F7F4FCE01019656D46FE072E0CE0188
:1002E0000196DCD4B701F2D466E172E0D7D4B8014C
:1002F000EDD4BC01CE01079631D4CE010196B2D324
:10030000BE01695F7F4F8BE492E0E8D2CE01079691
:10031000A9D32C960FB6F894DEBF0FBECDBFDF91E8
:10032000CF911F910F91FF90EF900895CF93DF939E
:1003300000D000D0CDB7DEB76091300270913102AD
:100340004AE050E08BE492E077D380913402882336
:1003500099F065E372E0CE01019615D4CE010196C5
:1003600001DFCE0101967ED379DF67E072E085E39D
:1003700092E011D41092340226960FB6F894DEBFA4
:100380000FBECDBFDF91CF91089567E072E085E3A6
:1003900092E0CFD32BEC37E04BE050E064E070E02C
:1003A0008EE292E0C1C585E392E05CC3CF93DF9318
:1003B000D1E08BE492E014D0892B79F08BE492E0C9
:1003C00028D0C82F682F85E392E025D4CA3011F0D9
:1003D000CD3579F7D0933402ECCFDF91CF910895EA
:1003E000FC01818D228D90E0805C9F4F821B9109E2
:1003F0008F7399270895FC01918D828D981731F0A4
:10040000828DE80FF11D858D90E008958FEF9FEFAD
:100410000895FC01918D828D981761F0828DDF0126
:10042000A80FB11D5D968C91928D9F5F9F73928FE7
:1004300090E008958FEF9FEF08958DEB93E0892B67
:1004400039F086ED91E0892B19F097D1811125C003
:1004500080E090E0892B41F080E090E0892B21F052
:100460000E94000081111BC080E090E0892B41F0C8
:1004700080E090E0892B21F00E940000811112C0E1
:1004800080E090E0892B99F080E090E0892B79F072
:100490000E940000811109C0089588DFD9CF0E9411
:1004A0000000E2CF0E940000EBCF0C940000089502
:1004B000FC01848DDF01A80FB11DA35ABF4F2C9101
:1004C000848D90E001968F739927848FA689B789D0
:1004D0002C93A089B1898C9180648C93938D848DA9
:1004E000981306C00288F389E02D80818F7D808378
:1004F0000895CF93DF93EC01888D8823C1F0EA89BA
:10050000FB89808185FD05C0A889B9898C9186FD0C
:100510000EC00FB607FCF5CF808185FFF2CFA8890A
:10052000B9898C9185FFEDCFCE01C2DFE8CFDF9195
:10053000CF910895CF92DF92FF920F931F93CF93A5
:10054000DF931F92CDB7DEB76C01DC015B969C9107
:100550005B975C968C915C97981307C05096ED91D1
:10056000FC915197808185FD31C0F601038D10E02B
:100570000F5F1F4F0F731127F02EF601848DF812B5
:1005800010C00FB607FCF9CFD6015096ED91FC9143
:100590005197808185FFF1CFC601698389DF698129
:1005A000ECCF838DE80FF11DE35AFF4F6083D60136
:1005B0005B960C935B975296ED91FC9153978081DB
:1005C0008062808381E058968C930DC0D601569648
:1005D000ED91FC91579760835096ED91FC91519766
:1005E00080818064808381E090E00F90DF91CF91E3
:1005F0001F910F91FF90DF90CF900895BF92CF92FF
:10060000DF92EF92FF92CF93DF93EC016A017B01BF
:10061000B22EE889F98982E08083411581EE58077E
:100620006105710599F060E079E08DE390E0A70144
:10063000960182D4215031094109510956954795B7
:1006400037952795211580E1380790F0E889F989D9
:10065000108260E874E88EE190E0A70196016CD406
:1006600021503109410951095695479537952795EC
:10067000EC85FD853083EE85FF852083188EEC891F
:10068000FD89B082EA89FB89808180618083EA8963
:10069000FB89808188608083EA89FB89808180680A
:1006A0008083EA89FB8980818F7D8083DF91CF9170
:1006B000FF90EF90DF90CF90BF9008951F920F9220
:1006C0000FB60F9211240BB60F922F938F939F9317
:1006D000EF93FF93E0915B02F0915C028081E091E7
:1006E0006102F091620282FD12C0908180916402E9
:1006F0008F5F8F7320916502821751F0E091640241
:10070000F0E0E55BFD4F958F8093640201C080812E
:10071000FF91EF919F918F912F910F900BBE0F90B2
:100720000FBE0F901F9018951F920F920FB60F9249
:1007300011240BB60F922F933F934F935F936F93B8
:100740007F938F939F93AF93BF93EF93FF938BE42C
:1007500092E0AEDEFF91EF91BF91AF919F918F91AB
:100760007F916F915F914F913F912F910F900BBEB1
:100770000F900FBE0F901F9018958BE492E030DE23
:1007800021E0892B09F420E0822F089510924E0277
:1007900010924D0288EE93E0A0E0B0E080934F020B
:1007A00090935002A0935102B093520282E292E0E1
:1007B00090934C0280934B0285EC90E0909358020A
:1007C0008093570284EC90E090935A0280935902F0
:1007D00080EC90E090935C0280935B0281EC90E06F
:1007E00090935E0280935D0282EC90E090936002B1
:1007F00080935F0286EC90E09093620280936102A6
:1008000010926402109265021092660210926702C2
:100810000895CF92DF92EF92FF920F931F93CF93A1
:10082000DF936C017A01EB01E60EF71E00E010E0A9
:10083000CE15DF0561F06991D601ED91FC91019033
:10084000F081E02DC6011995080F191FF1CFC801DD
:10085000DF91CF911F910F91FF90EF90DF90CF909C
:1008600008956115710581F0DB010D900020E9F715
:10087000AD0141505109461B570BDC01ED91FC9134
:100880000280F381E02D199480E090E00895DC016E
:10089000ED91FC91DB0114964D915C9115976D9152
:1008A0007C910280F381E02D1994DC01ED91FC91A3
:1008B0000190F081E02D19940F931F93CF93DF9354
:1008C000EC016DE0F2DF8C016AE0CE01EEDF800F1B
:1008D000911FDF91CF911F910F9108950F931F9357
:1008E000CF93DF93EC01D3DF8C01CE01E5DF800FE6
:1008F000911FDF91CF911F910F9108958F929F9239
:10090000AF92BF92CF92DF92EF92FF920F931F931D
:10091000CF93DF93CDB7DEB7A1970FB6F894DEBFC4
:100920000FBECDBF7C01C42EE52FCB01D22E19A264
:1009300021E02D1510F02AE0D22E8E010F5D1F4F01
:100940008D2C912CA12CB12C6C2D7E2FA501940106
:10095000F3D28C2DD29E80191124015011098A30B6
:1009600014F4805D01C0895CF80180832115310594
:100970004105510521F0C22EE32FCA01E5CFB80190
:10098000C7016FDFA1960FB6F894DEBF0FBECDBFD3
:10099000DF91CF911F910F91FF90EF90DF90CF905B
:1009A000BF90AF909F908F900895CF92DF92EF927B
:1009B000FF920F931F93CF93DF93EC016A017B01AA
:1009C0002115310579F4E881F9810190F081E02D5C
:1009D000642FDF91CF911F910F91FF90EF90DF90E7
:1009E000CF9019942A303105D9F477FF18C06DE201
:1009F0005CDF8C0144275527BA014C195D096E094B
:100A00007F092AE0CE017ADF800F911FDF91CF911D
:100A10001F910F91FF90EF90DF90CF9008952AE003
:100A2000B701A601CE01DF91CF911F910F91FF90E9
:100A3000EF90DF90CF9062CF0F931F93CF93DF9310
:100A4000EC019A01AB01662757FD6095762FADDF6B
:100A50008C01CE0131DF800F911FDF91CF911F916B
:100A60000F910895FC018081918124C3CF93DF937E
:100A7000EC0188819981009709F01CD319821882B2
:100A80001D821C821B821A82DF91CF9108950F93E1
:100A90001F93CF93DF93EC018B016F5F7F4F8881B2
:100AA000998197D3009731F0998388831B830A83B8
:100AB00081E001C080E0DF91CF911F910F910895F7
:100AC000CF93DF93EC0188819981892B29F08A816A
:100AD0009B818617970758F4CE01D9DF882341F010
:100AE0008C819D81892B19F4E881F981108281E044
:100AF000DF91CF910895EF92FF920F931F93CF93C1
:100B0000DF93EC017B018A01BA01DADF811103C0B6
:100B1000CE01ACDF06C01D830C83B70188819981AB
:100B200076D4CE01DF91CF911F910F91FF90EF907E
:100B30000895FC01118210821382128215821482A0
:100B40006115710551F0FB0101900020E9F7AF013B
:100B500041505109461B570BCECF0895CF93DF93D9
:100B6000EC01FB018617970751F0608171816115D7
:100B7000710521F044815581BEDF01C077DFCE01D0
:100B8000DF91CF910895FC011182108213821282AD
:100B900015821482E3CFCF93DF93EC0161157105C9
:100BA00059F0FB0101900020E9F7AF0141505109D4
:100BB000461B570BA0DF01C059DFCE01DF91CF915B
:100BC0000895EF92FF920F931F93CF93DF93EC0161
:100BD0007B010C811D816115710511F480E014C049
:100BE0004115510581F0040F151FB80169DF8823F5
:100BF000A9F3288139818C819D81B701820F931FD0
:100C000006D41D830C8381E0DF91CF911F910F915A
:100C1000FF90EF900895CF93DF931F921F92CDB76F
:100C2000DEB769831A8241E050E0BE016F5F7F4FFB
:100C3000C8DF0F900F90DF91CF910895EF92FF9250
:100C40000F931F93CF93DF93CDB7DEB728970FB6DF
:100C5000F894DEBF0FBECDBF7C01CB014AE050E06F
:100C60008E010F5F1F4FB801D9D3F801019000200A
:100C7000E9F7AF0141505109401B510BB801C701C1
:100C8000A0DF28960FB6F894DEBF0FBECDBFDF9170
:100C9000CF911F910F91FF90EF900895CF93DF9325
:100CA000EC016115710561F0FB0101900020E9F78D
:100CB000AF0141505109461B570B83DF811102C020
:100CC000CE01D4DECE01DF91CF910895CF93DF9393
:100CD000EC01B4DF811102C0CE01C8DECE01DF918C
:100CE000CF910895CF93DF93FC01848195814817BC
:100CF000590770F4C081D181772767FD7095CE01C7
:100D0000840F951F79D3009719F08C1B9D0B02C09F
:100D10008FEF9FEFDF91CF91089540E050E0E2CF59
:100D2000BF92CF92DF92EF92FF920F931F93CF93D8
:100D3000DF936C017B01EA0189012417350720F458
:100D40008D2FE901042F182F67E072E0C601F1DE54
:100D5000D70114968D919C911597C817D907C0F4A7
:100D60008017910708F48C01D701ED91FC91119740
:100D7000E00FF11FB08010826D917C916C0F7D1F90
:100D8000C60109DFD701ED91FC91E00FF11FB082A0
:100D9000C601DF91CF911F910F91FF90EF90DF90EF
:100DA000CF90BF900895FC0180819181009709F058
:100DB000F4C260E070E0CB010895089553D0FDDFE8
:100DC000C4D9CDE1D2E0B2DA2097E9F336DBFBCF2C
:100DD0001F920F920FB60F9211242F933F938F9370
:100DE0009F93AF93BF938091E9029091EA02A09103
:100DF000EB02B091EC023091E80223E0230F2D3793
:100E000020F40196A11DB11D05C026E8230F02960E
:100E1000A11DB11D2093E8028093E9029093EA029C
:100E2000A093EB02B093EC028091ED029091EE0260
:100E3000A091EF02B091F0020196A11DB11D809327
:100E4000ED029093EE02A093EF02B093F002BF91F7
:100E5000AF919F918F913F912F910F900FBE0F9067
:100E60001F901895789484B5826084BD84B58160A4
:100E700084BD85B5826085BD85B5816085BDEEE6A2
:100E8000F0E0808181608083E1E8F0E01082808181
:100E900082608083808181608083E0E8F0E08081EF
:100EA00081608083E1EBF0E0808184608083E0EB0F
:100EB000F0E0808181608083E1E9F0E08081826000
:100EC0008083808181608083E0E9F0E080818160BF
:100ED0008083E1EAF0E080818260808380818160AC
:100EE0008083E0EAF0E0808181608083E1E2F1E0EC
:100EF000808182608083808181608083E0E2F1E094
:100F0000808181608083EAE7F0E080818460808373
:100F1000808182608083808181608083808180681D
:100F200080831092C1000895FC0151834083738334
:100F30006283358324830895A1E21A2EAA1BBB1B6A
:100F4000FD010DC0AA1FBB1FEE1FFF1FA217B30795
:100F5000E407F50720F0A21BB30BE40BF50B661FAB
:100F6000771F881F991F1A9469F76095709580956F
:100F700090959B01AC01BD01CF0108950790F691BA
:100F8000E02D1994CF93DF938230910510F482E025
:100F900090E0E091F302F091F40220E030E0A0E074
:100FA000B0E0309739F14081518148175907B8F0C6
:100FB0004817590771F482819381109729F013968D
:100FC0009C938E9312972CC09093F4028093F3021B
:100FD00027C02115310531F04217530718F0A90138
:100FE000DB0101C0EF019A01BD01DF010280F38145
:100FF000E02DD7CF21153105F9F0281B390B24300E
:10100000310580F48A819B816115710521F0FB0116
:101010009383828304C09093F4028093F302FE01D1
:10102000329644C0FE01E20FF31F81939193225048
:101030003109398328833AC02091F1023091F202BC
:10104000232B41F420910202309103023093F202EB
:101050002093F10220910002309101022115310507
:1010600041F42DB73EB74091040250910502241B74
:10107000350BE091F102F091F202E217F307A0F4D0
:101080002E1B3F0B2817390778F0AC014E5F5F4FDE
:101090002417350748F04E0F5F1F5093F20240931C
:1010A000F1028193919302C0E0E0F0E0CF01DF9183
:1010B000CF910895CF93DF93009709F487C0FC0187
:1010C000329713821282C091F302D091F4022097DA
:1010D00081F420813181280F391F8091F102909194
:1010E000F2028217930779F5F093F202E093F1028E
:1010F0006DC0DE0120E030E0AE17BF0750F412965D
:101100004D915C9113979D014115510509F1DA014B
:10111000F3CFB383A28340815181840F951F8A1737
:101120009B0771F48D919C911197840F951F0296E6
:101130009183808312968D919C91139793838283E0
:101140002115310529F4F093F402E093F3023EC037
:10115000D9011396FC93EE9312974D915D91A40FD4
:10116000B51FEA17FB0779F480819181840F951FE1
:101170000296D90111969C938E9382819381139646
:101180009C938E931297E0E0F0E08A819B81009718
:1011900019F0FE01EC01F9CFCE01029628813981C8
:1011A000820F931F2091F1023091F2022817390724
:1011B00069F4309729F41092F4021092F30202C0FD
:1011C00013821282D093F202C093F102DF91CF9189
:1011D00008956F927F928F929F92AF92BF92CF921B
:1011E000DF92EF92FF920F931F93CF93DF93EC0167
:1011F000CB01209779F4DF91CF911F910F91FF9050
:10120000EF90DF90CF90BF90AF909F908F907F90A6
:101210006F90B8CEFE01E60FF71F9E0122503109F4
:10122000E217F30708F4A8C0D9010D911C9111979A
:1012300006171707B0F00530110508F49BC0A80188
:10124000445051094617570708F494C00250110939
:10125000061B170B019311936D937C93CF012ADF2B
:1012600089C05B01A01AB10A4E01800E911EA091A7
:10127000F302B091F402612C712C60E070E01097E1
:1012800009F449C0A815B905C9F5ED90FC9011976E
:10129000670142E0C40ED11CCA14DB0478F1470197
:1012A0008A189B08640142E0C40ED11C1296BC90BF
:1012B00012971396AC91B5E0CB16D10440F0B282F0
:1012C000A38391828082D9018D939C9309C00E5F84
:1012D0001F4F0E0D1F1DF90111830083EB2DFA2FF7
:1012E0006115710531F0DB011396FC93EE931297B3
:1012F00041C0F093F402E093F3023CC06D917C9105
:1013000011976616770608F43B01BD0112960D9001
:10131000BC91A02DB4CF6091F1027091F2026815DA
:101320007905E9F468167906D0F4409100025091ED
:1013300001024115510541F44DB75EB760910402B9
:1013400070910502461B570BE417F507A8F4F093BC
:10135000F202E093F102F901918380830BC012DE67
:101360007C01009749F0A801BE013DD0CE01A2DE6C
:10137000C70104C0CE0102C080E090E0DF91CF91B0
:101380001F910F91FF90EF90DF90CF90BF90AF90A3
:101390009F908F907F906F9008951F93FC019927E5
:1013A0008827BC01E89411911032E9F3193010F04C
:1013B0001E30C8F31B3249F01D3241F4689405C059
:1013C00041D0610F711D811D911D119110531A3073
:1013D000B8F33EF490958095709561957F4F8F4F4F
:1013E0009F4F1F910895FB01DC0102C001900D92F7
:1013F00041505040D8F70895FC018191861721F0A3
:101400008823D9F7992708953197CF010895FB01D3
:10141000DC0101900D920020E1F70895453251055D
:1014200018F4423008F004C0FB011082CB0108958B
:10143000BB274A3031F4992322F4BDE2909581957F
:101440009F4F16C0592F482F372F262F660F771F13
:10145000881F991F660F771F881F991F620F731FC0
:10146000841F951F660F771F881F991F0895BB273C
:10147000FB015527AA27880F991FAA1FA41710F050
:10148000A41B83955051B9F7A05DAA3308F0A95D5C
:10149000A193009779F7B111B1931192CB0100C0DC
:1014A000DC01FC01672F71917723E1F7329704C0CB
:1014B0007C916D9370836291AE17BF07C8F3089556
:1014C00010E0C8EED0E000E005C022970109FE015F
:1014D0000BBF54DDCA3ED10780E00807B1F7F8948E
:0214E000FFCF3C
:1014E2000000F50280002C00783D0009793D0009DA
:1014F20073697A653D000966616365733D000000AA
:0E15020000009A020904F0010902FB017902BF
:00000001FF
